{
  "_format": "hh-sol-artifact-1",
  "contractName": "ElectionFactory",
  "sourceName": "contracts/ElectionFactory.sol",
  "abi": [
    {
      "anonymous": false,
      "inputs": [
        {
          "indexed": true,
          "internalType": "address",
          "name": "admin",
          "type": "address"
        },
        {
          "indexed": true,
          "internalType": "address",
          "name": "electionAddress",
          "type": "address"
        },
        {
          "indexed": false,
          "internalType": "string",
          "name": "title",
          "type": "string"
        }
      ],
      "name": "ElectionCreated",
      "type": "event"
    },
    {
      "inputs": [
        {
          "internalType": "string",
          "name": "_title",
          "type": "string"
        }
      ],
      "name": "createElection",
      "outputs": [
        {
          "internalType": "address",
          "name": "",
          "type": "address"
        }
      ],
      "stateMutability": "nonpayable",
      "type": "function"
    },
    {
      "inputs": [
        {
          "internalType": "uint256",
          "name": "",
          "type": "uint256"
        }
      ],
      "name": "elections",
      "outputs": [
        {
          "internalType": "address",
          "name": "admin",
          "type": "address"
        },
        {
          "internalType": "address",
          "name": "electionAddress",
          "type": "address"
        },
        {
          "internalType": "string",
          "name": "title",
          "type": "string"
        }
      ],
      "stateMutability": "view",
      "type": "function"
    },
    {
      "inputs": [],
      "name": "getAllElections",
      "outputs": [
        {
          "internalType": "address[]",
          "name": "",
          "type": "address[]"
        }
      ],
      "stateMutability": "view",
      "type": "function"
    },
    {
      "inputs": [
        {
          "internalType": "uint256",
          "name": "index",
          "type": "uint256"
        }
      ],
      "name": "getElection",
      "outputs": [
        {
          "internalType": "address",
          "name": "admin",
          "type": "address"
        },
        {
          "internalType": "address",
          "name": "electionAddress",
          "type": "address"
        },
        {
          "internalType": "string",
          "name": "title",
          "type": "string"
        }
      ],
      "stateMutability": "view",
      "type": "function"
    },
    {
      "inputs": [],
      "name": "getElectionsCount",
      "outputs": [
        {
          "internalType": "uint256",
          "name": "",
          "type": "uint256"
        }
      ],
      "stateMutability": "view",
      "type": "function"
    }
  ],
  "bytecode": "0x6080604052348015600f57600080fd5b506137ea8061001f6000396000f3fe608060405234801561001057600080fd5b50600436106100575760003560e01c806315cf4a5f1461005c5780635e6fef011461008c5780637fd5f268146100be5780639d710777146100dc578063b1bb6ec31461010e575b600080fd5b6100766004803603810190610071919061072a565b61012c565b60405161008391906107b8565b60405180910390f35b6100a660048036038101906100a19190610809565b61033c565b6040516100b5939291906108c6565b60405180910390f35b6100c661043e565b6040516100d391906109c2565b60405180910390f35b6100f660048036038101906100f19190610809565b610549565b604051610105939291906108c6565b60405180910390f35b6101166106a2565b60405161012391906109f3565b60405180910390f35b60008033848460405161013e906106ae565b61014a93929190610a4a565b604051809103906000f080158015610166573d6000803e3d6000fd5b5090506000819050600060405180606001604052803373ffffffffffffffffffffffffffffffffffffffff1681526020018373ffffffffffffffffffffffffffffffffffffffff16815260200187878080601f016020809104026020016040519081016040528093929190818152602001838380828437600081840152601f19601f82011690508083019250505050505050815250908060018154018082558091505060019003906000526020600020906003020160009091909190915060008201518160000160006101000a81548173ffffffffffffffffffffffffffffffffffffffff021916908373ffffffffffffffffffffffffffffffffffffffff16021790555060208201518160010160006101000a81548173ffffffffffffffffffffffffffffffffffffffff021916908373ffffffffffffffffffffffffffffffffffffffff16021790555060408201518160020190816102c79190610cb7565b5050508073ffffffffffffffffffffffffffffffffffffffff163373ffffffffffffffffffffffffffffffffffffffff167f58701c4cb084eb3ec4467a6e962ae496cd129cdf7866dfbcea73b56149b88e858787604051610329929190610d89565b60405180910390a3809250505092915050565b6000818154811061034c57600080fd5b90600052602060002090600302016000915090508060000160009054906101000a900473ffffffffffffffffffffffffffffffffffffffff16908060010160009054906101000a900473ffffffffffffffffffffffffffffffffffffffff16908060020180546103bb90610ada565b80601f01602080910402602001604051908101604052809291908181526020018280546103e790610ada565b80156104345780601f1061040957610100808354040283529160200191610434565b820191906000526020600020905b81548152906001019060200180831161041757829003601f168201915b5050505050905083565b60606000808054905067ffffffffffffffff8111156104605761045f610a7c565b5b60405190808252806020026020018201604052801561048e5781602001602082028036833780820191505090505b50905060005b60008054905081101561054157600081815481106104b5576104b4610dad565b5b906000526020600020906003020160010160009054906101000a900473ffffffffffffffffffffffffffffffffffffffff168282815181106104fa576104f9610dad565b5b602002602001019073ffffffffffffffffffffffffffffffffffffffff16908173ffffffffffffffffffffffffffffffffffffffff16815250508080600101915050610494565b508091505090565b60008060606000805490508410610595576040517f08c379a000000000000000000000000000000000000000000000000000000000815260040161058c90610e28565b60405180910390fd5b60008085815481106105aa576105a9610dad565b5b906000526020600020906003020190508060000160009054906101000a900473ffffffffffffffffffffffffffffffffffffffff168160010160009054906101000a900473ffffffffffffffffffffffffffffffffffffffff168260020180805461061490610ada565b80601f016020809104026020016040519081016040528092919081815260200182805461064090610ada565b801561068d5780601f106106625761010080835404028352916020019161068d565b820191906000526020600020905b81548152906001019060200180831161067057829003601f168201915b50505050509050935093509350509193909250565b60008080549050905090565b61296c80610e4983390190565b600080fd5b600080fd5b600080fd5b600080fd5b600080fd5b60008083601f8401126106ea576106e96106c5565b5b8235905067ffffffffffffffff811115610707576107066106ca565b5b602083019150836001820283011115610723576107226106cf565b5b9250929050565b60008060208385031215610741576107406106bb565b5b600083013567ffffffffffffffff81111561075f5761075e6106c0565b5b61076b858286016106d4565b92509250509250929050565b600073ffffffffffffffffffffffffffffffffffffffff82169050919050565b60006107a282610777565b9050919050565b6107b281610797565b82525050565b60006020820190506107cd60008301846107a9565b92915050565b6000819050919050565b6107e6816107d3565b81146107f157600080fd5b50565b600081359050610803816107dd565b92915050565b60006020828403121561081f5761081e6106bb565b5b600061082d848285016107f4565b91505092915050565b600081519050919050565b600082825260208201905092915050565b60005b83811015610870578082015181840152602081019050610855565b60008484015250505050565b6000601f19601f8301169050919050565b600061089882610836565b6108a28185610841565b93506108b2818560208601610852565b6108bb8161087c565b840191505092915050565b60006060820190506108db60008301866107a9565b6108e860208301856107a9565b81810360408301526108fa818461088d565b9050949350505050565b600081519050919050565b600082825260208201905092915050565b6000819050602082019050919050565b61093981610797565b82525050565b600061094b8383610930565b60208301905092915050565b6000602082019050919050565b600061096f82610904565b610979818561090f565b935061098483610920565b8060005b838110156109b557815161099c888261093f565b97506109a783610957565b925050600181019050610988565b5085935050505092915050565b600060208201905081810360008301526109dc8184610964565b905092915050565b6109ed816107d3565b82525050565b6000602082019050610a0860008301846109e4565b92915050565b82818337600083830152505050565b6000610a298385610841565b9350610a36838584610a0e565b610a3f8361087c565b840190509392505050565b6000604082019050610a5f60008301866107a9565b8181036020830152610a72818486610a1d565b9050949350505050565b7f4e487b7100000000000000000000000000000000000000000000000000000000600052604160045260246000fd5b7f4e487b7100000000000000000000000000000000000000000000000000000000600052602260045260246000fd5b60006002820490506001821680610af257607f821691505b602082108103610b0557610b04610aab565b5b50919050565b60008190508160005260206000209050919050565b60006020601f8301049050919050565b600082821b905092915050565b600060088302610b6d7fffffffffffffffffffffffffffffffffffffffffffffffffffffffffffffffff82610b30565b610b778683610b30565b95508019841693508086168417925050509392505050565b6000819050919050565b6000610bb4610baf610baa846107d3565b610b8f565b6107d3565b9050919050565b6000819050919050565b610bce83610b99565b610be2610bda82610bbb565b848454610b3d565b825550505050565b600090565b610bf7610bea565b610c02818484610bc5565b505050565b5b81811015610c2657610c1b600082610bef565b600181019050610c08565b5050565b601f821115610c6b57610c3c81610b0b565b610c4584610b20565b81016020851015610c54578190505b610c68610c6085610b20565b830182610c07565b50505b505050565b600082821c905092915050565b6000610c8e60001984600802610c70565b1980831691505092915050565b6000610ca78383610c7d565b9150826002028217905092915050565b610cc082610836565b67ffffffffffffffff811115610cd957610cd8610a7c565b5b610ce38254610ada565b610cee828285610c2a565b600060209050601f831160018114610d215760008415610d0f578287015190505b610d198582610c9b565b865550610d81565b601f198416610d2f86610b0b565b60005b82811015610d5757848901518255600182019150602085019450602081019050610d32565b86831015610d745784890151610d70601f891682610c7d565b8355505b6001600288020188555050505b505050505050565b60006020820190508181036000830152610da4818486610a1d565b90509392505050565b7f4e487b7100000000000000000000000000000000000000000000000000000000600052603260045260246000fd5b7f4f7574206f6620626f756e647300000000000000000000000000000000000000600082015250565b6000610e12600d83610841565b9150610e1d82610ddc565b602082019050919050565b60006020820190508181036000830152610e4181610e05565b905091905056fe608060405234801561001057600080fd5b5060405161296c38038061296c8339818101604052810190610032919061037c565b600073ffffffffffffffffffffffffffffffffffffffff168273ffffffffffffffffffffffffffffffffffffffff16036100a1576040517f08c379a000000000000000000000000000000000000000000000000000000000815260040161009890610435565b60405180910390fd5b816000806101000a81548173ffffffffffffffffffffffffffffffffffffffff021916908373ffffffffffffffffffffffffffffffffffffffff16021790555080600190816100f09190610676565b506000600260006101000a81548160ff0219169083151502179055506000600260016101000a81548160ff02191690831515021790555060008054906101000a900473ffffffffffffffffffffffffffffffffffffffff1673ffffffffffffffffffffffffffffffffffffffff16600073ffffffffffffffffffffffffffffffffffffffff167f8be0079c531659141344cd1fd0a4f28419497f9722a3daafe3b4186f6b6457e060405160405180910390a35050610748565b6000604051905090565b600080fd5b600080fd5b600073ffffffffffffffffffffffffffffffffffffffff82169050919050565b60006101e8826101bd565b9050919050565b6101f8816101dd565b811461020357600080fd5b50565b600081519050610215816101ef565b92915050565b600080fd5b600080fd5b6000601f19601f8301169050919050565b7f4e487b7100000000000000000000000000000000000000000000000000000000600052604160045260246000fd5b61026e82610225565b810181811067ffffffffffffffff8211171561028d5761028c610236565b5b80604052505050565b60006102a06101a9565b90506102ac8282610265565b919050565b600067ffffffffffffffff8211156102cc576102cb610236565b5b6102d582610225565b9050602081019050919050565b60005b838110156103005780820151818401526020810190506102e5565b60008484015250505050565b600061031f61031a846102b1565b610296565b90508281526020810184848401111561033b5761033a610220565b5b6103468482856102e2565b509392505050565b600082601f8301126103635761036261021b565b5b815161037384826020860161030c565b91505092915050565b60008060408385031215610393576103926101b3565b5b60006103a185828601610206565b925050602083015167ffffffffffffffff8111156103c2576103c16101b8565b5b6103ce8582860161034e565b9150509250929050565b600082825260208201905092915050565b7f496e76616c69642063726561746f720000000000000000000000000000000000600082015250565b600061041f600f836103d8565b915061042a826103e9565b602082019050919050565b6000602082019050818103600083015261044e81610412565b9050919050565b600081519050919050565b7f4e487b7100000000000000000000000000000000000000000000000000000000600052602260045260246000fd5b600060028204905060018216806104a757607f821691505b6020821081036104ba576104b9610460565b5b50919050565b60008190508160005260206000209050919050565b60006020601f8301049050919050565b600082821b905092915050565b6000600883026105227fffffffffffffffffffffffffffffffffffffffffffffffffffffffffffffffff826104e5565b61052c86836104e5565b95508019841693508086168417925050509392505050565b6000819050919050565b6000819050919050565b600061057361056e61056984610544565b61054e565b610544565b9050919050565b6000819050919050565b61058d83610558565b6105a16105998261057a565b8484546104f2565b825550505050565b600090565b6105b66105a9565b6105c1818484610584565b505050565b5b818110156105e5576105da6000826105ae565b6001810190506105c7565b5050565b601f82111561062a576105fb816104c0565b610604846104d5565b81016020851015610613578190505b61062761061f856104d5565b8301826105c6565b50505b505050565b600082821c905092915050565b600061064d6000198460080261062f565b1980831691505092915050565b6000610666838361063c565b9150826002028217905092915050565b61067f82610455565b67ffffffffffffffff81111561069857610697610236565b5b6106a2825461048f565b6106ad8282856105e9565b600060209050601f8311600181146106e057600084156106ce578287015190505b6106d8858261065a565b865550610740565b601f1984166106ee866104c0565b60005b82811015610716578489015182556001820191506020850194506020810190506106f1565b86831015610733578489015161072f601f89168261063c565b8355505b6001600288020188555050505b505050505050565b612215806107576000396000f3fe608060405234801561001057600080fd5b50600436106101165760003560e01c80634a79d50c116100a25780638e7ea5b2116100715780638e7ea5b2146102ad578063a9ff6df1146102cd578063c3c5a547146102fd578063eceed3391461032d578063f2fde38b1461034e57610116565b80634a79d50c1461025d57806359f784681461027b57806362d73eb8146102855780638da5cb5b1461028f57610116565b80632d35a8a2116100e95780632d35a8a2146101a35780633477ee2e146101c157806335b8e820146101f357806338db6dd314610225578063462e91ec1461024157610116565b80630121b93f1461011b57806309eef43e1461013757806312fa6feb146101675780631f2698ab14610185575b600080fd5b610135600480360381019061013091906114de565b61036a565b005b610151600480360381019061014c9190611569565b610609565b60405161015e91906115b1565b60405180910390f35b61016f610629565b60405161017c91906115b1565b60405180910390f35b61018d61063c565b60405161019a91906115b1565b60405180910390f35b6101ab61064f565b6040516101b891906115db565b60405180910390f35b6101db60048036038101906101d691906114de565b610655565b6040516101ea93929190611686565b60405180910390f35b61020d600480360381019061020891906114de565b610707565b60405161021c93929190611686565b60405180910390f35b61023f600480360381019061023a9190611569565b61081c565b005b61025b600480360381019061025691906117f9565b610a94565b005b610265610c6b565b6040516102729190611842565b60405180910390f35b610283610cf9565b005b61028d610e53565b005b610297610fda565b6040516102a49190611873565b60405180910390f35b6102b5610ffe565b6040516102c493929190611686565b60405180910390f35b6102e760048036038101906102e29190611569565b61119e565b6040516102f491906115b1565b60405180910390f35b61031760048036038101906103129190611569565b6111be565b60405161032491906115b1565b60405180910390f35b610335611214565b604051610345949392919061188e565b60405180910390f35b61036860048036038101906103639190611569565b6112da565b005b600260009054906101000a900460ff1680156103935750600260019054906101000a900460ff16155b6103d2576040517f08c379a00000000000000000000000000000000000000000000000000000000081526004016103c990611926565b60405180910390fd5b600560003373ffffffffffffffffffffffffffffffffffffffff1673ffffffffffffffffffffffffffffffffffffffff16815260200190815260200160002060009054906101000a900460ff1661045e576040517f08c379a000000000000000000000000000000000000000000000000000000000815260040161045590611992565b60405180910390fd5b600660003373ffffffffffffffffffffffffffffffffffffffff1673ffffffffffffffffffffffffffffffffffffffff16815260200190815260200160002060009054906101000a900460ff16156104eb576040517f08c379a00000000000000000000000000000000000000000000000000000000081526004016104e2906119fe565b60405180910390fd5b6000811180156104fd57506004548111155b61053c576040517f08c379a000000000000000000000000000000000000000000000000000000000815260040161053390611a6a565b60405180910390fd5b6001600660003373ffffffffffffffffffffffffffffffffffffffff1673ffffffffffffffffffffffffffffffffffffffff16815260200190815260200160002060006101000a81548160ff02191690831515021790555060016003600083815260200190815260200160002060020160008282546105bb9190611ab9565b92505081905550803373ffffffffffffffffffffffffffffffffffffffff167f4d99b957a2bc29a30ebd96a7be8e68fe50a3c701db28a91436490b7d53870ca460405160405180910390a350565b60066020528060005260406000206000915054906101000a900460ff1681565b600260019054906101000a900460ff1681565b600260009054906101000a900460ff1681565b60045481565b600360205280600052604060002060009150905080600001549080600101805461067e90611b1c565b80601f01602080910402602001604051908101604052809291908181526020018280546106aa90611b1c565b80156106f75780601f106106cc576101008083540402835291602001916106f7565b820191906000526020600020905b8154815290600101906020018083116106da57829003601f168201915b5050505050908060020154905083565b600060606000808411801561071e57506004548411155b61075d576040517f08c379a000000000000000000000000000000000000000000000000000000000815260040161075490611a6a565b60405180910390fd5b6000600360008681526020019081526020016000209050806000015481600101826002015481805461078e90611b1c565b80601f01602080910402602001604051908101604052809291908181526020018280546107ba90611b1c565b80156108075780601f106107dc57610100808354040283529160200191610807565b820191906000526020600020905b8154815290600101906020018083116107ea57829003601f168201915b50505050509150935093509350509193909250565b60008054906101000a900473ffffffffffffffffffffffffffffffffffffffff1673ffffffffffffffffffffffffffffffffffffffff163373ffffffffffffffffffffffffffffffffffffffff16146108aa576040517f08c379a00000000000000000000000000000000000000000000000000000000081526004016108a190611b99565b60405180910390fd5b600260009054906101000a900460ff16156108fa576040517f08c379a00000000000000000000000000000000000000000000000000000000081526004016108f190611c05565b60405180910390fd5b600073ffffffffffffffffffffffffffffffffffffffff168173ffffffffffffffffffffffffffffffffffffffff1603610969576040517f08c379a000000000000000000000000000000000000000000000000000000000815260040161096090611c71565b60405180910390fd5b600560008273ffffffffffffffffffffffffffffffffffffffff1673ffffffffffffffffffffffffffffffffffffffff16815260200190815260200160002060009054906101000a900460ff16156109f6576040517f08c379a00000000000000000000000000000000000000000000000000000000081526004016109ed90611cdd565b60405180910390fd5b6001600560008373ffffffffffffffffffffffffffffffffffffffff1673ffffffffffffffffffffffffffffffffffffffff16815260200190815260200160002060006101000a81548160ff0219169083151502179055508073ffffffffffffffffffffffffffffffffffffffff167fb6be2187d059cc2a55fe29e0e503b566e1e0f8c8780096e185429350acffd3dd60405160405180910390a250565b60008054906101000a900473ffffffffffffffffffffffffffffffffffffffff1673ffffffffffffffffffffffffffffffffffffffff163373ffffffffffffffffffffffffffffffffffffffff1614610b22576040517f08c379a0000000000000000000000000000000000000000000000000000000008152600401610b1990611b99565b60405180910390fd5b600260009054906101000a900460ff1615610b72576040517f08c379a0000000000000000000000000000000000000000000000000000000008152600401610b6990611d49565b60405180910390fd5b6000815111610bb6576040517f08c379a0000000000000000000000000000000000000000000000000000000008152600401610bad90611db5565b60405180910390fd5b60046000815480929190610bc990611dd5565b9190505550604051806060016040528060045481526020018281526020016000815250600360006004548152602001908152602001600020600082015181600001556020820151816001019081610c209190611fc9565b50604082015181600201559050506004547fe83b2a43e7e82d975c8a0a6d2f045153c869e111136a34d1889ab7b598e396a382604051610c609190611842565b60405180910390a250565b60018054610c7890611b1c565b80601f0160208091040260200160405190810160405280929190818152602001828054610ca490611b1c565b8015610cf15780601f10610cc657610100808354040283529160200191610cf1565b820191906000526020600020905b815481529060010190602001808311610cd457829003601f168201915b505050505081565b60008054906101000a900473ffffffffffffffffffffffffffffffffffffffff1673ffffffffffffffffffffffffffffffffffffffff163373ffffffffffffffffffffffffffffffffffffffff1614610d87576040517f08c379a0000000000000000000000000000000000000000000000000000000008152600401610d7e90611b99565b60405180910390fd5b600260009054906101000a900460ff168015610db05750600260019054906101000a900460ff16155b610def576040517f08c379a0000000000000000000000000000000000000000000000000000000008152600401610de690611926565b60405180910390fd5b6001600260016101000a81548160ff0219169083151502179055506000600260006101000a81548160ff0219169083151502179055507f66ec723071e4bb646f7b35d31bc2dee8510979bd8c180edd0690d4f5e802f1e460405160405180910390a1565b60008054906101000a900473ffffffffffffffffffffffffffffffffffffffff1673ffffffffffffffffffffffffffffffffffffffff163373ffffffffffffffffffffffffffffffffffffffff1614610ee1576040517f08c379a0000000000000000000000000000000000000000000000000000000008152600401610ed890611b99565b60405180910390fd5b600260009054906101000a900460ff1615610f31576040517f08c379a0000000000000000000000000000000000000000000000000000000008152600401610f28906120e7565b60405180910390fd5b600060045411610f76576040517f08c379a0000000000000000000000000000000000000000000000000000000008152600401610f6d90612153565b60405180910390fd5b6001600260006101000a81548160ff0219169083151502179055506000600260016101000a81548160ff0219169083151502179055507fc475c26aa25ed8e85a7faa790e5f63b5d7ee1025f12821f4c9bfddd36ab4d11260405160405180910390a1565b60008054906101000a900473ffffffffffffffffffffffffffffffffffffffff1681565b600060606000600260019054906101000a900460ff16611053576040517f08c379a000000000000000000000000000000000000000000000000000000000815260040161104a906121bf565b60405180910390fd5b6000806000600190505b60045481116110b45781600360008381526020019081526020016000206002015411156110a157600360008281526020019081526020016000206002015491508092505b80806110ac90611dd5565b91505061105d565b50600082036110de5760008060405180602001604052806000815250909450945094505050611199565b6000600360008481526020019081526020016000209050806000015481600101826002015481805461110f90611b1c565b80601f016020809104026020016040519081016040528092919081815260200182805461113b90611b1c565b80156111885780601f1061115d57610100808354040283529160200191611188565b820191906000526020600020905b81548152906001019060200180831161116b57829003601f168201915b505050505091509550955095505050505b909192565b60056020528060005260406000206000915054906101000a900460ff1681565b6000600560008373ffffffffffffffffffffffffffffffffffffffff1673ffffffffffffffffffffffffffffffffffffffff16815260200190815260200160002060009054906101000a900460ff169050919050565b606060008060006001600260009054906101000a900460ff16600260019054906101000a900460ff1660045483805461124c90611b1c565b80601f016020809104026020016040519081016040528092919081815260200182805461127890611b1c565b80156112c55780601f1061129a576101008083540402835291602001916112c5565b820191906000526020600020905b8154815290600101906020018083116112a857829003601f168201915b50505050509350935093509350935090919293565b60008054906101000a900473ffffffffffffffffffffffffffffffffffffffff1673ffffffffffffffffffffffffffffffffffffffff163373ffffffffffffffffffffffffffffffffffffffff1614611368576040517f08c379a000000000000000000000000000000000000000000000000000000000815260040161135f90611b99565b60405180910390fd5b600073ffffffffffffffffffffffffffffffffffffffff168173ffffffffffffffffffffffffffffffffffffffff16036113d7576040517f08c379a00000000000000000000000000000000000000000000000000000000081526004016113ce90611c71565b60405180910390fd5b8073ffffffffffffffffffffffffffffffffffffffff1660008054906101000a900473ffffffffffffffffffffffffffffffffffffffff1673ffffffffffffffffffffffffffffffffffffffff167f8be0079c531659141344cd1fd0a4f28419497f9722a3daafe3b4186f6b6457e060405160405180910390a3806000806101000a81548173ffffffffffffffffffffffffffffffffffffffff021916908373ffffffffffffffffffffffffffffffffffffffff16021790555050565b6000604051905090565b600080fd5b600080fd5b6000819050919050565b6114bb816114a8565b81146114c657600080fd5b50565b6000813590506114d8816114b2565b92915050565b6000602082840312156114f4576114f361149e565b5b6000611502848285016114c9565b91505092915050565b600073ffffffffffffffffffffffffffffffffffffffff82169050919050565b60006115368261150b565b9050919050565b6115468161152b565b811461155157600080fd5b50565b6000813590506115638161153d565b92915050565b60006020828403121561157f5761157e61149e565b5b600061158d84828501611554565b91505092915050565b60008115159050919050565b6115ab81611596565b82525050565b60006020820190506115c660008301846115a2565b92915050565b6115d5816114a8565b82525050565b60006020820190506115f060008301846115cc565b92915050565b600081519050919050565b600082825260208201905092915050565b60005b83811015611630578082015181840152602081019050611615565b60008484015250505050565b6000601f19601f8301169050919050565b6000611658826115f6565b6116628185611601565b9350611672818560208601611612565b61167b8161163c565b840191505092915050565b600060608201905061169b60008301866115cc565b81810360208301526116ad818561164d565b90506116bc60408301846115cc565b949350505050565b600080fd5b600080fd5b7f4e487b7100000000000000000000000000000000000000000000000000000000600052604160045260246000fd5b6117068261163c565b810181811067ffffffffffffffff82111715611725576117246116ce565b5b80604052505050565b6000611738611494565b905061174482826116fd565b919050565b600067ffffffffffffffff821115611764576117636116ce565b5b61176d8261163c565b9050602081019050919050565b82818337600083830152505050565b600061179c61179784611749565b61172e565b9050828152602081018484840111156117b8576117b76116c9565b5b6117c384828561177a565b509392505050565b600082601f8301126117e0576117df6116c4565b5b81356117f0848260208601611789565b91505092915050565b60006020828403121561180f5761180e61149e565b5b600082013567ffffffffffffffff81111561182d5761182c6114a3565b5b611839848285016117cb565b91505092915050565b6000602082019050818103600083015261185c818461164d565b905092915050565b61186d8161152b565b82525050565b60006020820190506118886000830184611864565b92915050565b600060808201905081810360008301526118a8818761164d565b90506118b760208301866115a2565b6118c460408301856115a2565b6118d160608301846115cc565b95945050505050565b7f456c656374696f6e206973206e6f742061637469766500000000000000000000600082015250565b6000611910601683611601565b915061191b826118da565b602082019050919050565b6000602082019050818103600083015261193f81611903565b9050919050565b7f4e6f74207265676973746572656420746f20766f746500000000000000000000600082015250565b600061197c601683611601565b915061198782611946565b602082019050919050565b600060208201905081810360008301526119ab8161196f565b9050919050565b7f416c726561647920766f74656400000000000000000000000000000000000000600082015250565b60006119e8600d83611601565b91506119f3826119b2565b602082019050919050565b60006020820190508181036000830152611a17816119db565b9050919050565b7f496e76616c69642063616e646964617465000000000000000000000000000000600082015250565b6000611a54601183611601565b9150611a5f82611a1e565b602082019050919050565b60006020820190508181036000830152611a8381611a47565b9050919050565b7f4e487b7100000000000000000000000000000000000000000000000000000000600052601160045260246000fd5b6000611ac4826114a8565b9150611acf836114a8565b9250828201905080821115611ae757611ae6611a8a565b5b92915050565b7f4e487b7100000000000000000000000000000000000000000000000000000000600052602260045260246000fd5b60006002820490506001821680611b3457607f821691505b602082108103611b4757611b46611aed565b5b50919050565b7f4f6e6c79206f776e65722063616e2063616c6c20746869730000000000000000600082015250565b6000611b83601883611601565b9150611b8e82611b4d565b602082019050919050565b60006020820190508181036000830152611bb281611b76565b9050919050565b7f43616e6e6f742072656769737465722061667465722073746172740000000000600082015250565b6000611bef601b83611601565b9150611bfa82611bb9565b602082019050919050565b60006020820190508181036000830152611c1e81611be2565b9050919050565b7f496e76616c696420616464726573730000000000000000000000000000000000600082015250565b6000611c5b600f83611601565b9150611c6682611c25565b602082019050919050565b60006020820190508181036000830152611c8a81611c4e565b9050919050565b7f416c726561647920726567697374657265640000000000000000000000000000600082015250565b6000611cc7601283611601565b9150611cd282611c91565b602082019050919050565b60006020820190508181036000830152611cf681611cba565b9050919050565b7f456c656374696f6e20616c726561647920737461727465640000000000000000600082015250565b6000611d33601883611601565b9150611d3e82611cfd565b602082019050919050565b60006020820190508181036000830152611d6281611d26565b9050919050565b7f4e616d6520726571756972656400000000000000000000000000000000000000600082015250565b6000611d9f600d83611601565b9150611daa82611d69565b602082019050919050565b60006020820190508181036000830152611dce81611d92565b9050919050565b6000611de0826114a8565b91507fffffffffffffffffffffffffffffffffffffffffffffffffffffffffffffffff8203611e1257611e11611a8a565b5b600182019050919050565b60008190508160005260206000209050919050565b60006020601f8301049050919050565b600082821b905092915050565b600060088302611e7f7fffffffffffffffffffffffffffffffffffffffffffffffffffffffffffffffff82611e42565b611e898683611e42565b95508019841693508086168417925050509392505050565b6000819050919050565b6000611ec6611ec1611ebc846114a8565b611ea1565b6114a8565b9050919050565b6000819050919050565b611ee083611eab565b611ef4611eec82611ecd565b848454611e4f565b825550505050565b600090565b611f09611efc565b611f14818484611ed7565b505050565b5b81811015611f3857611f2d600082611f01565b600181019050611f1a565b5050565b601f821115611f7d57611f4e81611e1d565b611f5784611e32565b81016020851015611f66578190505b611f7a611f7285611e32565b830182611f19565b50505b505050565b600082821c905092915050565b6000611fa060001984600802611f82565b1980831691505092915050565b6000611fb98383611f8f565b9150826002028217905092915050565b611fd2826115f6565b67ffffffffffffffff811115611feb57611fea6116ce565b5b611ff58254611b1c565b612000828285611f3c565b600060209050601f8311600181146120335760008415612021578287015190505b61202b8582611fad565b865550612093565b601f19841661204186611e1d565b60005b8281101561206957848901518255600182019150602085019450602081019050612044565b868310156120865784890151612082601f891682611f8f565b8355505b6001600288020188555050505b505050505050565b7f416c726561647920737461727465640000000000000000000000000000000000600082015250565b60006120d1600f83611601565b91506120dc8261209b565b602082019050919050565b60006020820190508181036000830152612100816120c4565b9050919050565b7f4e6f2063616e6469646174657300000000000000000000000000000000000000600082015250565b600061213d600d83611601565b915061214882612107565b602082019050919050565b6000602082019050818103600083015261216c81612130565b9050919050565b7f456c656374696f6e206e6f7420656e6465640000000000000000000000000000600082015250565b60006121a9601283611601565b91506121b482612173565b602082019050919050565b600060208201905081810360008301526121d88161219c565b905091905056fea2646970667358221220e17a50809fa24b096ada4f938f1dc4970ff66046e57980e6dc7d8de27917ac8e64736f6c634300081c0033a2646970667358221220f2a624b7537420d3167d04c88c25ac874069e5d9de4c3a30faa6ad427e53548c64736f6c634300081c0033",
  "linkReferences": {},
  "deployedLinkReferences": {}
}