{
  "_format": "hh-sol-artifact-1",
  "contractName": "ElectionSystem",
  "sourceName": "contracts/ElectionSystem.sol",
  "abi": [
    {
      "inputs": [
        {
          "internalType": "address",
          "name": "_creator",
          "type": "address"
        },
        {
          "internalType": "string",
          "name": "_title",
          "type": "string"
        }
      ],
      "stateMutability": "nonpayable",
      "type": "constructor"
    },
    {
      "anonymous": false,
      "inputs": [
        {
          "indexed": true,
          "internalType": "uint256",
          "name": "candidateId",
          "type": "uint256"
        },
        {
          "indexed": false,
          "internalType": "string",
          "name": "name",
          "type": "string"
        }
      ],
      "name": "CandidateAdded",
      "type": "event"
    },
    {
      "anonymous": false,
      "inputs": [],
      "name": "ElectionEnded",
      "type": "event"
    },
    {
      "anonymous": false,
      "inputs": [],
      "name": "ElectionStarted",
      "type": "event"
    },
    {
      "anonymous": false,
      "inputs": [
        {
          "indexed": true,
          "internalType": "address",
          "name": "previousOwner",
          "type": "address"
        },
        {
          "indexed": true,
          "internalType": "address",
          "name": "newOwner",
          "type": "address"
        }
      ],
      "name": "OwnershipTransferred",
      "type": "event"
    },
    {
      "anonymous": false,
      "inputs": [
        {
          "indexed": true,
          "internalType": "address",
          "name": "voter",
          "type": "address"
        },
        {
          "indexed": true,
          "internalType": "uint256",
          "name": "candidateId",
          "type": "uint256"
        }
      ],
      "name": "Voted",
      "type": "event"
    },
    {
      "anonymous": false,
      "inputs": [
        {
          "indexed": true,
          "internalType": "string",
          "name": "uniqueId",
          "type": "string"
        },
        {
          "indexed": false,
          "internalType": "string",
          "name": "name",
          "type": "string"
        },
        {
          "indexed": false,
          "internalType": "address",
          "name": "walletId",
          "type": "address"
        }
      ],
      "name": "VoterDataAdded",
      "type": "event"
    },
    {
      "anonymous": false,
      "inputs": [
        {
          "indexed": false,
          "internalType": "uint256",
          "name": "totalVoters",
          "type": "uint256"
        }
      ],
      "name": "VoterListFinalized",
      "type": "event"
    },
    {
      "anonymous": false,
      "inputs": [
        {
          "indexed": true,
          "internalType": "address",
          "name": "voter",
          "type": "address"
        }
      ],
      "name": "VoterRegistered",
      "type": "event"
    },
    {
      "inputs": [
        {
          "internalType": "string",
          "name": "_name",
          "type": "string"
        }
      ],
      "name": "addCandidate",
      "outputs": [],
      "stateMutability": "nonpayable",
      "type": "function"
    },
    {
      "inputs": [
        {
          "internalType": "string",
          "name": "_name",
          "type": "string"
        },
        {
          "internalType": "string",
          "name": "_uniqueId",
          "type": "string"
        },
        {
          "internalType": "address",
          "name": "_walletId",
          "type": "address"
        }
      ],
      "name": "addVoterData",
      "outputs": [],
      "stateMutability": "nonpayable",
      "type": "function"
    },
    {
      "inputs": [
        {
          "internalType": "string",
          "name": "_uniqueId",
          "type": "string"
        }
      ],
      "name": "authenticateVoter",
      "outputs": [
        {
          "internalType": "string",
          "name": "name",
          "type": "string"
        },
        {
          "internalType": "bool",
          "name": "isValid",
          "type": "bool"
        }
      ],
      "stateMutability": "view",
      "type": "function"
    },
    {
      "inputs": [
        {
          "internalType": "uint256",
          "name": "",
          "type": "uint256"
        }
      ],
      "name": "candidates",
      "outputs": [
        {
          "internalType": "uint256",
          "name": "id",
          "type": "uint256"
        },
        {
          "internalType": "string",
          "name": "name",
          "type": "string"
        },
        {
          "internalType": "uint256",
          "name": "voteCount",
          "type": "uint256"
        }
      ],
      "stateMutability": "view",
      "type": "function"
    },
    {
      "inputs": [],
      "name": "candidatesCount",
      "outputs": [
        {
          "internalType": "uint256",
          "name": "",
          "type": "uint256"
        }
      ],
      "stateMutability": "view",
      "type": "function"
    },
    {
      "inputs": [],
      "name": "endElection",
      "outputs": [],
      "stateMutability": "nonpayable",
      "type": "function"
    },
    {
      "inputs": [],
      "name": "ended",
      "outputs": [
        {
          "internalType": "bool",
          "name": "",
          "type": "bool"
        }
      ],
      "stateMutability": "view",
      "type": "function"
    },
    {
      "inputs": [],
      "name": "finalizeVoterList",
      "outputs": [],
      "stateMutability": "nonpayable",
      "type": "function"
    },
    {
      "inputs": [
        {
          "internalType": "uint256",
          "name": "_candidateId",
          "type": "uint256"
        }
      ],
      "name": "getCandidate",
      "outputs": [
        {
          "internalType": "uint256",
          "name": "id",
          "type": "uint256"
        },
        {
          "internalType": "string",
          "name": "name",
          "type": "string"
        },
        {
          "internalType": "uint256",
          "name": "votes",
          "type": "uint256"
        }
      ],
      "stateMutability": "view",
      "type": "function"
    },
    {
      "inputs": [],
      "name": "getElection",
      "outputs": [
        {
          "internalType": "string",
          "name": "_title",
          "type": "string"
        },
        {
          "internalType": "bool",
          "name": "_started",
          "type": "bool"
        },
        {
          "internalType": "bool",
          "name": "_ended",
          "type": "bool"
        },
        {
          "internalType": "uint256",
          "name": "_candidatesCount",
          "type": "uint256"
        }
      ],
      "stateMutability": "view",
      "type": "function"
    },
    {
      "inputs": [
        {
          "internalType": "string",
          "name": "_uniqueId",
          "type": "string"
        }
      ],
      "name": "getVoterByUniqueId",
      "outputs": [
        {
          "internalType": "string",
          "name": "name",
          "type": "string"
        },
        {
          "internalType": "address",
          "name": "walletId",
          "type": "address"
        },
        {
          "internalType": "bool",
          "name": "isValid",
          "type": "bool"
        }
      ],
      "stateMutability": "view",
      "type": "function"
    },
    {
      "inputs": [],
      "name": "getVoterListStatus",
      "outputs": [
        {
          "internalType": "bool",
          "name": "finalized",
          "type": "bool"
        },
        {
          "internalType": "uint256",
          "name": "totalVotersCount",
          "type": "uint256"
        }
      ],
      "stateMutability": "view",
      "type": "function"
    },
    {
      "inputs": [
        {
          "internalType": "address",
          "name": "_wallet",
          "type": "address"
        }
      ],
      "name": "getVoterUniqueId",
      "outputs": [
        {
          "internalType": "string",
          "name": "",
          "type": "string"
        }
      ],
      "stateMutability": "view",
      "type": "function"
    },
    {
      "inputs": [],
      "name": "getWinner",
      "outputs": [
        {
          "internalType": "uint256",
          "name": "id",
          "type": "uint256"
        },
        {
          "internalType": "string",
          "name": "name",
          "type": "string"
        },
        {
          "internalType": "uint256",
          "name": "votes",
          "type": "uint256"
        }
      ],
      "stateMutability": "view",
      "type": "function"
    },
    {
      "inputs": [
        {
          "internalType": "address",
          "name": "",
          "type": "address"
        }
      ],
      "name": "hasVoted",
      "outputs": [
        {
          "internalType": "bool",
          "name": "",
          "type": "bool"
        }
      ],
      "stateMutability": "view",
      "type": "function"
    },
    {
      "inputs": [
        {
          "internalType": "address",
          "name": "_voter",
          "type": "address"
        }
      ],
      "name": "isRegistered",
      "outputs": [
        {
          "internalType": "bool",
          "name": "",
          "type": "bool"
        }
      ],
      "stateMutability": "view",
      "type": "function"
    },
    {
      "inputs": [
        {
          "internalType": "address",
          "name": "_wallet",
          "type": "address"
        }
      ],
      "name": "isWalletRegistered",
      "outputs": [
        {
          "internalType": "bool",
          "name": "",
          "type": "bool"
        }
      ],
      "stateMutability": "view",
      "type": "function"
    },
    {
      "inputs": [],
      "name": "owner",
      "outputs": [
        {
          "internalType": "address",
          "name": "",
          "type": "address"
        }
      ],
      "stateMutability": "view",
      "type": "function"
    },
    {
      "inputs": [
        {
          "internalType": "address",
          "name": "_voter",
          "type": "address"
        }
      ],
      "name": "registerVoter",
      "outputs": [],
      "stateMutability": "nonpayable",
      "type": "function"
    },
    {
      "inputs": [
        {
          "internalType": "address",
          "name": "",
          "type": "address"
        }
      ],
      "name": "registeredVoters",
      "outputs": [
        {
          "internalType": "bool",
          "name": "",
          "type": "bool"
        }
      ],
      "stateMutability": "view",
      "type": "function"
    },
    {
      "inputs": [],
      "name": "startElection",
      "outputs": [],
      "stateMutability": "nonpayable",
      "type": "function"
    },
    {
      "inputs": [],
      "name": "started",
      "outputs": [
        {
          "internalType": "bool",
          "name": "",
          "type": "bool"
        }
      ],
      "stateMutability": "view",
      "type": "function"
    },
    {
      "inputs": [],
      "name": "title",
      "outputs": [
        {
          "internalType": "string",
          "name": "",
          "type": "string"
        }
      ],
      "stateMutability": "view",
      "type": "function"
    },
    {
      "inputs": [],
      "name": "totalVoters",
      "outputs": [
        {
          "internalType": "uint256",
          "name": "",
          "type": "uint256"
        }
      ],
      "stateMutability": "view",
      "type": "function"
    },
    {
      "inputs": [
        {
          "internalType": "address",
          "name": "newOwner",
          "type": "address"
        }
      ],
      "name": "transferOwnership",
      "outputs": [],
      "stateMutability": "nonpayable",
      "type": "function"
    },
    {
      "inputs": [
        {
          "internalType": "uint256",
          "name": "_candidateId",
          "type": "uint256"
        }
      ],
      "name": "vote",
      "outputs": [],
      "stateMutability": "nonpayable",
      "type": "function"
    },
    {
      "inputs": [
        {
          "internalType": "string",
          "name": "",
          "type": "string"
        }
      ],
      "name": "voterDatabase",
      "outputs": [
        {
          "internalType": "string",
          "name": "name",
          "type": "string"
        },
        {
          "internalType": "string",
          "name": "uniqueId",
          "type": "string"
        },
        {
          "internalType": "address",
          "name": "walletId",
          "type": "address"
        },
        {
          "internalType": "bool",
          "name": "isValid",
          "type": "bool"
        }
      ],
      "stateMutability": "view",
      "type": "function"
    },
    {
      "inputs": [],
      "name": "voterListFinalized",
      "outputs": [
        {
          "internalType": "bool",
          "name": "",
          "type": "bool"
        }
      ],
      "stateMutability": "view",
      "type": "function"
    },
    {
      "inputs": [
        {
          "internalType": "uint256",
          "name": "",
          "type": "uint256"
        }
      ],
      "name": "voterUniqueIds",
      "outputs": [
        {
          "internalType": "string",
          "name": "",
          "type": "string"
        }
      ],
      "stateMutability": "view",
      "type": "function"
    },
    {
      "inputs": [
        {
          "internalType": "address",
          "name": "",
          "type": "address"
        }
      ],
      "name": "walletToUniqueId",
      "outputs": [
        {
          "internalType": "string",
          "name": "",
          "type": "string"
        }
      ],
      "stateMutability": "view",
      "type": "function"
    }
  ],
  "bytecode": "0x608060405234801561001057600080fd5b506040516141653803806141658339818101604052810190610032919061039e565b600073ffffffffffffffffffffffffffffffffffffffff168273ffffffffffffffffffffffffffffffffffffffff16036100a1576040517f08c379a000000000000000000000000000000000000000000000000000000000815260040161009890610457565b60405180910390fd5b816000806101000a81548173ffffffffffffffffffffffffffffffffffffffff021916908373ffffffffffffffffffffffffffffffffffffffff16021790555080600190816100f09190610698565b506000600260006101000a81548160ff0219169083151502179055506000600260016101000a81548160ff02191690831515021790555060006002806101000a81548160ff0219169083151502179055506000600a8190555060008054906101000a900473ffffffffffffffffffffffffffffffffffffffff1673ffffffffffffffffffffffffffffffffffffffff16600073ffffffffffffffffffffffffffffffffffffffff167f8be0079c531659141344cd1fd0a4f28419497f9722a3daafe3b4186f6b6457e060405160405180910390a3505061076a565b6000604051905090565b600080fd5b600080fd5b600073ffffffffffffffffffffffffffffffffffffffff82169050919050565b600061020a826101df565b9050919050565b61021a816101ff565b811461022557600080fd5b50565b60008151905061023781610211565b92915050565b600080fd5b600080fd5b6000601f19601f8301169050919050565b7f4e487b7100000000000000000000000000000000000000000000000000000000600052604160045260246000fd5b61029082610247565b810181811067ffffffffffffffff821117156102af576102ae610258565b5b80604052505050565b60006102c26101cb565b90506102ce8282610287565b919050565b600067ffffffffffffffff8211156102ee576102ed610258565b5b6102f782610247565b9050602081019050919050565b60005b83811015610322578082015181840152602081019050610307565b60008484015250505050565b600061034161033c846102d3565b6102b8565b90508281526020810184848401111561035d5761035c610242565b5b610368848285610304565b509392505050565b600082601f8301126103855761038461023d565b5b815161039584826020860161032e565b91505092915050565b600080604083850312156103b5576103b46101d5565b5b60006103c385828601610228565b925050602083015167ffffffffffffffff8111156103e4576103e36101da565b5b6103f085828601610370565b9150509250929050565b600082825260208201905092915050565b7f496e76616c69642063726561746f720000000000000000000000000000000000600082015250565b6000610441600f836103fa565b915061044c8261040b565b602082019050919050565b6000602082019050818103600083015261047081610434565b9050919050565b600081519050919050565b7f4e487b7100000000000000000000000000000000000000000000000000000000600052602260045260246000fd5b600060028204905060018216806104c957607f821691505b6020821081036104dc576104db610482565b5b50919050565b60008190508160005260206000209050919050565b60006020601f8301049050919050565b600082821b905092915050565b6000600883026105447fffffffffffffffffffffffffffffffffffffffffffffffffffffffffffffffff82610507565b61054e8683610507565b95508019841693508086168417925050509392505050565b6000819050919050565b6000819050919050565b600061059561059061058b84610566565b610570565b610566565b9050919050565b6000819050919050565b6105af8361057a565b6105c36105bb8261059c565b848454610514565b825550505050565b600090565b6105d86105cb565b6105e38184846105a6565b505050565b5b81811015610607576105fc6000826105d0565b6001810190506105e9565b5050565b601f82111561064c5761061d816104e2565b610626846104f7565b81016020851015610635578190505b610649610641856104f7565b8301826105e8565b50505b505050565b600082821c905092915050565b600061066f60001984600802610651565b1980831691505092915050565b6000610688838361065e565b9150826002028217905092915050565b6106a182610477565b67ffffffffffffffff8111156106ba576106b9610258565b5b6106c482546104b1565b6106cf82828561060b565b600060209050601f83116001811461070257600084156106f0578287015190505b6106fa858261067c565b865550610762565b601f198416610710866104e2565b60005b8281101561073857848901518255600182019150602085019450602081019050610713565b868310156107555784890151610751601f89168261065e565b8355505b6001600288020188555050505b505050505050565b6139ec806107796000396000f3fe608060405234801561001057600080fd5b50600436106101da5760003560e01c80635ca5e0f8116101045780638e7ea5b2116100a2578063bb9c67d011610071578063bb9c67d01461058e578063c3c5a54714610598578063eceed339146105c8578063f2fde38b146105e9576101da565b80638e7ea5b2146104de5780639a7abcfc146104fe578063a9ff6df11461052e578063b7840a1c1461055e576101da565b8063729a41b1116100de578063729a41b11461042c5780637d112d641461045f5780637f247e49146104905780638da5cb5b146104c0576101da565b80635ca5e0f8146103d45780635f5300ff1461040457806362d73eb814610422576101da565b806335b8e8201161017c5780634a79d50c1161014b5780634a79d50c1461036f5780634e9a98431461038d57806358305496146103ab57806359f78468146103ca576101da565b806335b8e820146102d357806338db6dd31461030557806342f3520614610321578063462e91ec14610353576101da565b80631f2698ab116101b85780631f2698ab1461024957806329f5774c146102675780632d35a8a2146102835780633477ee2e146102a1576101da565b80630121b93f146101df57806309eef43e146101fb57806312fa6feb1461022b575b600080fd5b6101f960048036038101906101f49190612737565b610605565b005b610215600480360381019061021091906127c2565b610a59565b604051610222919061280a565b60405180910390f35b610233610a79565b604051610240919061280a565b60405180910390f35b610251610a8c565b60405161025e919061280a565b60405180910390f35b610281600480360381019061027c919061296b565b610a9f565b005b61028b610f4b565b6040516102989190612a05565b60405180910390f35b6102bb60048036038101906102b69190612737565b610f51565b6040516102ca93929190612a9f565b60405180910390f35b6102ed60048036038101906102e89190612737565b611003565b6040516102fc93929190612a9f565b60405180910390f35b61031f600480360381019061031a91906127c2565b611118565b005b61033b60048036038101906103369190612add565b611390565b60405161034a93929190612b35565b60405180910390f35b61036d60048036038101906103689190612add565b611574565b005b61037761174b565b6040516103849190612b73565b60405180910390f35b6103956117d9565b6040516103a2919061280a565b60405180910390f35b6103b36117ea565b6040516103c1929190612b95565b60405180910390f35b6103d2611806565b005b6103ee60048036038101906103e99190612737565b611960565b6040516103fb9190612b73565b60405180910390f35b61040c611a0c565b6040516104199190612a05565b60405180910390f35b61042a611a12565b005b61044660048036038101906104419190612add565b611b99565b6040516104569493929190612bbe565b60405180910390f35b61047960048036038101906104749190612add565b611d1c565b604051610487929190612c11565b60405180910390f35b6104aa60048036038101906104a591906127c2565b611ef5565b6040516104b7919061280a565b60405180910390f35b6104c8611f4c565b6040516104d59190612c41565b60405180910390f35b6104e6611f70565b6040516104f593929190612a9f565b60405180910390f35b610518600480360381019061051391906127c2565b612110565b6040516105259190612b73565b60405180910390f35b610548600480360381019061054391906127c2565b6121b0565b604051610555919061280a565b60405180910390f35b610578600480360381019061057391906127c2565b6121d0565b6040516105859190612b73565b60405180910390f35b6105966122a1565b005b6105b260048036038101906105ad91906127c2565b612417565b6040516105bf919061280a565b60405180910390f35b6105d061246d565b6040516105e09493929190612c5c565b60405180910390f35b61060360048036038101906105fe91906127c2565b612533565b005b600260009054906101000a900460ff16801561062e5750600260019054906101000a900460ff16155b61066d576040517f08c379a000000000000000000000000000000000000000000000000000000000815260040161066490612cf4565b60405180910390fd5b6000600860003373ffffffffffffffffffffffffffffffffffffffff1673ffffffffffffffffffffffffffffffffffffffff16815260200190815260200160002080546106b990612d43565b80601f01602080910402602001604051908101604052809291908181526020018280546106e590612d43565b80156107325780601f1061070757610100808354040283529160200191610732565b820191906000526020600020905b81548152906001019060200180831161071557829003601f168201915b50505050509050600081511161077d576040517f08c379a000000000000000000000000000000000000000000000000000000000815260040161077490612de6565b60405180910390fd5b60078160405161078d9190612e42565b908152602001604051809103902060020160149054906101000a900460ff166107eb576040517f08c379a00000000000000000000000000000000000000000000000000000000081526004016107e290612ea5565b60405180910390fd5b600560003373ffffffffffffffffffffffffffffffffffffffff1673ffffffffffffffffffffffffffffffffffffffff16815260200190815260200160002060009054906101000a900460ff168061086e575060078160405161084e9190612e42565b908152602001604051809103902060020160149054906101000a900460ff165b6108ad576040517f08c379a00000000000000000000000000000000000000000000000000000000081526004016108a490612f11565b60405180910390fd5b600660003373ffffffffffffffffffffffffffffffffffffffff1673ffffffffffffffffffffffffffffffffffffffff16815260200190815260200160002060009054906101000a900460ff161561093a576040517f08c379a000000000000000000000000000000000000000000000000000000000815260040161093190612f7d565b60405180910390fd5b60008211801561094c57506004548211155b61098b576040517f08c379a000000000000000000000000000000000000000000000000000000000815260040161098290612fe9565b60405180910390fd5b6001600660003373ffffffffffffffffffffffffffffffffffffffff1673ffffffffffffffffffffffffffffffffffffffff16815260200190815260200160002060006101000a81548160ff0219169083151502179055506001600360008481526020019081526020016000206002016000828254610a0a9190613038565b92505081905550813373ffffffffffffffffffffffffffffffffffffffff167f4d99b957a2bc29a30ebd96a7be8e68fe50a3c701db28a91436490b7d53870ca460405160405180910390a35050565b60066020528060005260406000206000915054906101000a900460ff1681565b600260019054906101000a900460ff1681565b600260009054906101000a900460ff1681565b60008054906101000a900473ffffffffffffffffffffffffffffffffffffffff1673ffffffffffffffffffffffffffffffffffffffff163373ffffffffffffffffffffffffffffffffffffffff1614610b2d576040517f08c379a0000000000000000000000000000000000000000000000000000000008152600401610b24906130b8565b60405180910390fd5b60028054906101000a900460ff1615610b7b576040517f08c379a0000000000000000000000000000000000000000000000000000000008152600401610b7290613124565b60405180910390fd5b6000835111610bbf576040517f08c379a0000000000000000000000000000000000000000000000000000000008152600401610bb690613190565b60405180910390fd5b6000825111610c03576040517f08c379a0000000000000000000000000000000000000000000000000000000008152600401610bfa906131fc565b60405180910390fd5b600073ffffffffffffffffffffffffffffffffffffffff168173ffffffffffffffffffffffffffffffffffffffff1603610c72576040517f08c379a0000000000000000000000000000000000000000000000000000000008152600401610c6990613268565b60405180910390fd5b600782604051610c829190612e42565b908152602001604051809103902060020160149054906101000a900460ff1615610ce1576040517f08c379a0000000000000000000000000000000000000000000000000000000008152600401610cd8906132d4565b60405180910390fd5b6000600860008373ffffffffffffffffffffffffffffffffffffffff1673ffffffffffffffffffffffffffffffffffffffff1681526020019081526020016000208054610d2d90612d43565b905014610d6f576040517f08c379a0000000000000000000000000000000000000000000000000000000008152600401610d6690613340565b60405180910390fd5b60405180608001604052808481526020018381526020018273ffffffffffffffffffffffffffffffffffffffff16815260200160011515815250600783604051610db99190612e42565b90815260200160405180910390206000820151816000019081610ddc919061350c565b506020820151816001019081610df2919061350c565b5060408201518160020160006101000a81548173ffffffffffffffffffffffffffffffffffffffff021916908373ffffffffffffffffffffffffffffffffffffffff16021790555060608201518160020160146101000a81548160ff02191690831515021790555090505081600860008373ffffffffffffffffffffffffffffffffffffffff1673ffffffffffffffffffffffffffffffffffffffff1681526020019081526020016000209081610ea9919061350c565b50600982908060018154018082558091505060019003906000526020600020016000909190919091509081610ede919061350c565b50600a6000815480929190610ef2906135de565b919050555081604051610f059190612e42565b60405180910390207f513ad40f4d46527f7cca42dd50314d07448ad92c1fd8a4f035beaa4cb2aca8e68483604051610f3e929190613626565b60405180910390a2505050565b60045481565b6003602052806000526040600020600091509050806000015490806001018054610f7a90612d43565b80601f0160208091040260200160405190810160405280929190818152602001828054610fa690612d43565b8015610ff35780601f10610fc857610100808354040283529160200191610ff3565b820191906000526020600020905b815481529060010190602001808311610fd657829003601f168201915b5050505050908060020154905083565b600060606000808411801561101a57506004548411155b611059576040517f08c379a000000000000000000000000000000000000000000000000000000000815260040161105090612fe9565b60405180910390fd5b6000600360008681526020019081526020016000209050806000015481600101826002015481805461108a90612d43565b80601f01602080910402602001604051908101604052809291908181526020018280546110b690612d43565b80156111035780601f106110d857610100808354040283529160200191611103565b820191906000526020600020905b8154815290600101906020018083116110e657829003601f168201915b50505050509150935093509350509193909250565b60008054906101000a900473ffffffffffffffffffffffffffffffffffffffff1673ffffffffffffffffffffffffffffffffffffffff163373ffffffffffffffffffffffffffffffffffffffff16146111a6576040517f08c379a000000000000000000000000000000000000000000000000000000000815260040161119d906130b8565b60405180910390fd5b600260009054906101000a900460ff16156111f6576040517f08c379a00000000000000000000000000000000000000000000000000000000081526004016111ed906136a2565b60405180910390fd5b600073ffffffffffffffffffffffffffffffffffffffff168173ffffffffffffffffffffffffffffffffffffffff1603611265576040517f08c379a000000000000000000000000000000000000000000000000000000000815260040161125c9061370e565b60405180910390fd5b600560008273ffffffffffffffffffffffffffffffffffffffff1673ffffffffffffffffffffffffffffffffffffffff16815260200190815260200160002060009054906101000a900460ff16156112f2576040517f08c379a00000000000000000000000000000000000000000000000000000000081526004016112e99061377a565b60405180910390fd5b6001600560008373ffffffffffffffffffffffffffffffffffffffff1673ffffffffffffffffffffffffffffffffffffffff16815260200190815260200160002060006101000a81548160ff0219169083151502179055508073ffffffffffffffffffffffffffffffffffffffff167fb6be2187d059cc2a55fe29e0e503b566e1e0f8c8780096e185429350acffd3dd60405160405180910390a250565b606060008060006007856040516113a79190612e42565b90815260200160405180910390206040518060800160405290816000820180546113d090612d43565b80601f01602080910402602001604051908101604052809291908181526020018280546113fc90612d43565b80156114495780601f1061141e57610100808354040283529160200191611449565b820191906000526020600020905b81548152906001019060200180831161142c57829003601f168201915b5050505050815260200160018201805461146290612d43565b80601f016020809104026020016040519081016040528092919081815260200182805461148e90612d43565b80156114db5780601f106114b0576101008083540402835291602001916114db565b820191906000526020600020905b8154815290600101906020018083116114be57829003601f168201915b505050505081526020016002820160009054906101000a900473ffffffffffffffffffffffffffffffffffffffff1673ffffffffffffffffffffffffffffffffffffffff1673ffffffffffffffffffffffffffffffffffffffff1681526020016002820160149054906101000a900460ff1615151515815250509050806000015181604001518260600151935093509350509193909250565b60008054906101000a900473ffffffffffffffffffffffffffffffffffffffff1673ffffffffffffffffffffffffffffffffffffffff163373ffffffffffffffffffffffffffffffffffffffff1614611602576040517f08c379a00000000000000000000000000000000000000000000000000000000081526004016115f9906130b8565b60405180910390fd5b600260009054906101000a900460ff1615611652576040517f08c379a0000000000000000000000000000000000000000000000000000000008152600401611649906137e6565b60405180910390fd5b6000815111611696576040517f08c379a000000000000000000000000000000000000000000000000000000000815260040161168d90613190565b60405180910390fd5b600460008154809291906116a9906135de565b9190505550604051806060016040528060045481526020018281526020016000815250600360006004548152602001908152602001600020600082015181600001556020820151816001019081611700919061350c565b50604082015181600201559050506004547fe83b2a43e7e82d975c8a0a6d2f045153c869e111136a34d1889ab7b598e396a3826040516117409190612b73565b60405180910390a250565b6001805461175890612d43565b80601f016020809104026020016040519081016040528092919081815260200182805461178490612d43565b80156117d15780601f106117a6576101008083540402835291602001916117d1565b820191906000526020600020905b8154815290600101906020018083116117b457829003601f168201915b505050505081565b60028054906101000a900460ff1681565b60008060028054906101000a900460ff16600a54915091509091565b60008054906101000a900473ffffffffffffffffffffffffffffffffffffffff1673ffffffffffffffffffffffffffffffffffffffff163373ffffffffffffffffffffffffffffffffffffffff1614611894576040517f08c379a000000000000000000000000000000000000000000000000000000000815260040161188b906130b8565b60405180910390fd5b600260009054906101000a900460ff1680156118bd5750600260019054906101000a900460ff16155b6118fc576040517f08c379a00000000000000000000000000000000000000000000000000000000081526004016118f390612cf4565b60405180910390fd5b6001600260016101000a81548160ff0219169083151502179055506000600260006101000a81548160ff0219169083151502179055507f66ec723071e4bb646f7b35d31bc2dee8510979bd8c180edd0690d4f5e802f1e460405160405180910390a1565b6009818154811061197057600080fd5b90600052602060002001600091509050805461198b90612d43565b80601f01602080910402602001604051908101604052809291908181526020018280546119b790612d43565b8015611a045780601f106119d957610100808354040283529160200191611a04565b820191906000526020600020905b8154815290600101906020018083116119e757829003601f168201915b505050505081565b600a5481565b60008054906101000a900473ffffffffffffffffffffffffffffffffffffffff1673ffffffffffffffffffffffffffffffffffffffff163373ffffffffffffffffffffffffffffffffffffffff1614611aa0576040517f08c379a0000000000000000000000000000000000000000000000000000000008152600401611a97906130b8565b60405180910390fd5b600260009054906101000a900460ff1615611af0576040517f08c379a0000000000000000000000000000000000000000000000000000000008152600401611ae790613852565b60405180910390fd5b600060045411611b35576040517f08c379a0000000000000000000000000000000000000000000000000000000008152600401611b2c906138be565b60405180910390fd5b6001600260006101000a81548160ff0219169083151502179055506000600260016101000a81548160ff0219169083151502179055507fc475c26aa25ed8e85a7faa790e5f63b5d7ee1025f12821f4c9bfddd36ab4d11260405160405180910390a1565b600781805160208101820180518482526020830160208501208183528095505050505050600091509050806000018054611bd290612d43565b80601f0160208091040260200160405190810160405280929190818152602001828054611bfe90612d43565b8015611c4b5780601f10611c2057610100808354040283529160200191611c4b565b820191906000526020600020905b815481529060010190602001808311611c2e57829003601f168201915b505050505090806001018054611c6090612d43565b80601f0160208091040260200160405190810160405280929190818152602001828054611c8c90612d43565b8015611cd95780601f10611cae57610100808354040283529160200191611cd9565b820191906000526020600020905b815481529060010190602001808311611cbc57829003601f168201915b5050505050908060020160009054906101000a900473ffffffffffffffffffffffffffffffffffffffff16908060020160149054906101000a900460ff16905084565b6060600080600784604051611d319190612e42565b9081526020016040518091039020604051806080016040529081600082018054611d5a90612d43565b80601f0160208091040260200160405190810160405280929190818152602001828054611d8690612d43565b8015611dd35780601f10611da857610100808354040283529160200191611dd3565b820191906000526020600020905b815481529060010190602001808311611db657829003601f168201915b50505050508152602001600182018054611dec90612d43565b80601f0160208091040260200160405190810160405280929190818152602001828054611e1890612d43565b8015611e655780601f10611e3a57610100808354040283529160200191611e65565b820191906000526020600020905b815481529060010190602001808311611e4857829003601f168201915b505050505081526020016002820160009054906101000a900473ffffffffffffffffffffffffffffffffffffffff1673ffffffffffffffffffffffffffffffffffffffff1673ffffffffffffffffffffffffffffffffffffffff1681526020016002820160149054906101000a900460ff1615151515815250509050806000015181606001519250925050915091565b600080600860008473ffffffffffffffffffffffffffffffffffffffff1673ffffffffffffffffffffffffffffffffffffffff1681526020019081526020016000208054611f4290612d43565b9050119050919050565b60008054906101000a900473ffffffffffffffffffffffffffffffffffffffff1681565b600060606000600260019054906101000a900460ff16611fc5576040517f08c379a0000000000000000000000000000000000000000000000000000000008152600401611fbc9061392a565b60405180910390fd5b6000806000600190505b600454811161202657816003600083815260200190815260200160002060020154111561201357600360008281526020019081526020016000206002015491508092505b808061201e906135de565b915050611fcf565b5060008203612050576000806040518060200160405280600081525090945094509450505061210b565b6000600360008481526020019081526020016000209050806000015481600101826002015481805461208190612d43565b80601f01602080910402602001604051908101604052809291908181526020018280546120ad90612d43565b80156120fa5780601f106120cf576101008083540402835291602001916120fa565b820191906000526020600020905b8154815290600101906020018083116120dd57829003601f168201915b505050505091509550955095505050505b909192565b6008602052806000526040600020600091509050805461212f90612d43565b80601f016020809104026020016040519081016040528092919081815260200182805461215b90612d43565b80156121a85780601f1061217d576101008083540402835291602001916121a8565b820191906000526020600020905b81548152906001019060200180831161218b57829003601f168201915b505050505081565b60056020528060005260406000206000915054906101000a900460ff1681565b6060600860008373ffffffffffffffffffffffffffffffffffffffff1673ffffffffffffffffffffffffffffffffffffffff168152602001908152602001600020805461221c90612d43565b80601f016020809104026020016040519081016040528092919081815260200182805461224890612d43565b80156122955780601f1061226a57610100808354040283529160200191612295565b820191906000526020600020905b81548152906001019060200180831161227857829003601f168201915b50505050509050919050565b60008054906101000a900473ffffffffffffffffffffffffffffffffffffffff1673ffffffffffffffffffffffffffffffffffffffff163373ffffffffffffffffffffffffffffffffffffffff161461232f576040517f08c379a0000000000000000000000000000000000000000000000000000000008152600401612326906130b8565b60405180910390fd5b60028054906101000a900460ff161561237d576040517f08c379a000000000000000000000000000000000000000000000000000000000815260040161237490613124565b60405180910390fd5b6000600a54116123c2576040517f08c379a00000000000000000000000000000000000000000000000000000000081526004016123b990613996565b60405180910390fd5b60016002806101000a81548160ff0219169083151502179055507f11e29d15359d60fad1e0f7c7c5636d64f6482ffed06b8cb3245366443d5d922e600a5460405161240d9190612a05565b60405180910390a1565b6000600560008373ffffffffffffffffffffffffffffffffffffffff1673ffffffffffffffffffffffffffffffffffffffff16815260200190815260200160002060009054906101000a900460ff169050919050565b606060008060006001600260009054906101000a900460ff16600260019054906101000a900460ff166004548380546124a590612d43565b80601f01602080910402602001604051908101604052809291908181526020018280546124d190612d43565b801561251e5780601f106124f35761010080835404028352916020019161251e565b820191906000526020600020905b81548152906001019060200180831161250157829003601f168201915b50505050509350935093509350935090919293565b60008054906101000a900473ffffffffffffffffffffffffffffffffffffffff1673ffffffffffffffffffffffffffffffffffffffff163373ffffffffffffffffffffffffffffffffffffffff16146125c1576040517f08c379a00000000000000000000000000000000000000000000000000000000081526004016125b8906130b8565b60405180910390fd5b600073ffffffffffffffffffffffffffffffffffffffff168173ffffffffffffffffffffffffffffffffffffffff1603612630576040517f08c379a00000000000000000000000000000000000000000000000000000000081526004016126279061370e565b60405180910390fd5b8073ffffffffffffffffffffffffffffffffffffffff1660008054906101000a900473ffffffffffffffffffffffffffffffffffffffff1673ffffffffffffffffffffffffffffffffffffffff167f8be0079c531659141344cd1fd0a4f28419497f9722a3daafe3b4186f6b6457e060405160405180910390a3806000806101000a81548173ffffffffffffffffffffffffffffffffffffffff021916908373ffffffffffffffffffffffffffffffffffffffff16021790555050565b6000604051905090565b600080fd5b600080fd5b6000819050919050565b61271481612701565b811461271f57600080fd5b50565b6000813590506127318161270b565b92915050565b60006020828403121561274d5761274c6126f7565b5b600061275b84828501612722565b91505092915050565b600073ffffffffffffffffffffffffffffffffffffffff82169050919050565b600061278f82612764565b9050919050565b61279f81612784565b81146127aa57600080fd5b50565b6000813590506127bc81612796565b92915050565b6000602082840312156127d8576127d76126f7565b5b60006127e6848285016127ad565b91505092915050565b60008115159050919050565b612804816127ef565b82525050565b600060208201905061281f60008301846127fb565b92915050565b600080fd5b600080fd5b6000601f19601f8301169050919050565b7f4e487b7100000000000000000000000000000000000000000000000000000000600052604160045260246000fd5b6128788261282f565b810181811067ffffffffffffffff8211171561289757612896612840565b5b80604052505050565b60006128aa6126ed565b90506128b6828261286f565b919050565b600067ffffffffffffffff8211156128d6576128d5612840565b5b6128df8261282f565b9050602081019050919050565b82818337600083830152505050565b600061290e612909846128bb565b6128a0565b90508281526020810184848401111561292a5761292961282a565b5b6129358482856128ec565b509392505050565b600082601f83011261295257612951612825565b5b81356129628482602086016128fb565b91505092915050565b600080600060608486031215612984576129836126f7565b5b600084013567ffffffffffffffff8111156129a2576129a16126fc565b5b6129ae8682870161293d565b935050602084013567ffffffffffffffff8111156129cf576129ce6126fc565b5b6129db8682870161293d565b92505060406129ec868287016127ad565b9150509250925092565b6129ff81612701565b82525050565b6000602082019050612a1a60008301846129f6565b92915050565b600081519050919050565b600082825260208201905092915050565b60005b83811015612a5a578082015181840152602081019050612a3f565b60008484015250505050565b6000612a7182612a20565b612a7b8185612a2b565b9350612a8b818560208601612a3c565b612a948161282f565b840191505092915050565b6000606082019050612ab460008301866129f6565b8181036020830152612ac68185612a66565b9050612ad560408301846129f6565b949350505050565b600060208284031215612af357612af26126f7565b5b600082013567ffffffffffffffff811115612b1157612b106126fc565b5b612b1d8482850161293d565b91505092915050565b612b2f81612784565b82525050565b60006060820190508181036000830152612b4f8186612a66565b9050612b5e6020830185612b26565b612b6b60408301846127fb565b949350505050565b60006020820190508181036000830152612b8d8184612a66565b905092915050565b6000604082019050612baa60008301856127fb565b612bb760208301846129f6565b9392505050565b60006080820190508181036000830152612bd88187612a66565b90508181036020830152612bec8186612a66565b9050612bfb6040830185612b26565b612c0860608301846127fb565b95945050505050565b60006040820190508181036000830152612c2b8185612a66565b9050612c3a60208301846127fb565b9392505050565b6000602082019050612c566000830184612b26565b92915050565b60006080820190508181036000830152612c768187612a66565b9050612c8560208301866127fb565b612c9260408301856127fb565b612c9f60608301846129f6565b95945050505050565b7f456c656374696f6e206973206e6f742061637469766500000000000000000000600082015250565b6000612cde601683612a2b565b9150612ce982612ca8565b602082019050919050565b60006020820190508181036000830152612d0d81612cd1565b9050919050565b7f4e487b7100000000000000000000000000000000000000000000000000000000600052602260045260246000fd5b60006002820490506001821680612d5b57607f821691505b602082108103612d6e57612d6d612d14565b5b50919050565b7f57616c6c6574206e6f74207265676973746572656420696e20766f746572206460008201527f6174616261736500000000000000000000000000000000000000000000000000602082015250565b6000612dd0602783612a2b565b9150612ddb82612d74565b604082019050919050565b60006020820190508181036000830152612dff81612dc3565b9050919050565b600081905092915050565b6000612e1c82612a20565b612e268185612e06565b9350612e36818560208601612a3c565b80840191505092915050565b6000612e4e8284612e11565b915081905092915050565b7f496e76616c696420766f74657200000000000000000000000000000000000000600082015250565b6000612e8f600d83612a2b565b9150612e9a82612e59565b602082019050919050565b60006020820190508181036000830152612ebe81612e82565b9050919050565b7f4e6f74207265676973746572656420746f20766f746500000000000000000000600082015250565b6000612efb601683612a2b565b9150612f0682612ec5565b602082019050919050565b60006020820190508181036000830152612f2a81612eee565b9050919050565b7f416c726561647920766f74656400000000000000000000000000000000000000600082015250565b6000612f67600d83612a2b565b9150612f7282612f31565b602082019050919050565b60006020820190508181036000830152612f9681612f5a565b9050919050565b7f496e76616c69642063616e646964617465000000000000000000000000000000600082015250565b6000612fd3601183612a2b565b9150612fde82612f9d565b602082019050919050565b6000602082019050818103600083015261300281612fc6565b9050919050565b7f4e487b7100000000000000000000000000000000000000000000000000000000600052601160045260246000fd5b600061304382612701565b915061304e83612701565b925082820190508082111561306657613065613009565b5b92915050565b7f4f6e6c79206f776e65722063616e2063616c6c20746869730000000000000000600082015250565b60006130a2601883612a2b565b91506130ad8261306c565b602082019050919050565b600060208201905081810360008301526130d181613095565b9050919050565b7f566f746572206c69737420616c72656164792066696e616c697a656400000000600082015250565b600061310e601c83612a2b565b9150613119826130d8565b602082019050919050565b6000602082019050818103600083015261313d81613101565b9050919050565b7f4e616d6520726571756972656400000000000000000000000000000000000000600082015250565b600061317a600d83612a2b565b915061318582613144565b602082019050919050565b600060208201905081810360008301526131a98161316d565b9050919050565b7f556e697175652049442072657175697265640000000000000000000000000000600082015250565b60006131e6601283612a2b565b91506131f1826131b0565b602082019050919050565b60006020820190508181036000830152613215816131d9565b9050919050565b7f496e76616c69642077616c6c6574206164647265737300000000000000000000600082015250565b6000613252601683612a2b565b915061325d8261321c565b602082019050919050565b6000602082019050818103600083015261328181613245565b9050919050565b7f556e6971756520494420616c7265616479206578697374730000000000000000600082015250565b60006132be601883612a2b565b91506132c982613288565b602082019050919050565b600060208201905081810360008301526132ed816132b1565b9050919050565b7f57616c6c657420616c7265616479207265676973746572656400000000000000600082015250565b600061332a601983612a2b565b9150613335826132f4565b602082019050919050565b600060208201905081810360008301526133598161331d565b9050919050565b60008190508160005260206000209050919050565b60006020601f8301049050919050565b600082821b905092915050565b6000600883026133c27fffffffffffffffffffffffffffffffffffffffffffffffffffffffffffffffff82613385565b6133cc8683613385565b95508019841693508086168417925050509392505050565b6000819050919050565b60006134096134046133ff84612701565b6133e4565b612701565b9050919050565b6000819050919050565b613423836133ee565b61343761342f82613410565b848454613392565b825550505050565b600090565b61344c61343f565b61345781848461341a565b505050565b5b8181101561347b57613470600082613444565b60018101905061345d565b5050565b601f8211156134c05761349181613360565b61349a84613375565b810160208510156134a9578190505b6134bd6134b585613375565b83018261345c565b50505b505050565b600082821c905092915050565b60006134e3600019846008026134c5565b1980831691505092915050565b60006134fc83836134d2565b9150826002028217905092915050565b61351582612a20565b67ffffffffffffffff81111561352e5761352d612840565b5b6135388254612d43565b61354382828561347f565b600060209050601f8311600181146135765760008415613564578287015190505b61356e85826134f0565b8655506135d6565b601f19841661358486613360565b60005b828110156135ac57848901518255600182019150602085019450602081019050613587565b868310156135c957848901516135c5601f8916826134d2565b8355505b6001600288020188555050505b505050505050565b60006135e982612701565b91507fffffffffffffffffffffffffffffffffffffffffffffffffffffffffffffffff820361361b5761361a613009565b5b600182019050919050565b600060408201905081810360008301526136408185612a66565b905061364f6020830184612b26565b9392505050565b7f43616e6e6f742072656769737465722061667465722073746172740000000000600082015250565b600061368c601b83612a2b565b915061369782613656565b602082019050919050565b600060208201905081810360008301526136bb8161367f565b9050919050565b7f496e76616c696420616464726573730000000000000000000000000000000000600082015250565b60006136f8600f83612a2b565b9150613703826136c2565b602082019050919050565b60006020820190508181036000830152613727816136eb565b9050919050565b7f416c726561647920726567697374657265640000000000000000000000000000600082015250565b6000613764601283612a2b565b915061376f8261372e565b602082019050919050565b6000602082019050818103600083015261379381613757565b9050919050565b7f456c656374696f6e20616c726561647920737461727465640000000000000000600082015250565b60006137d0601883612a2b565b91506137db8261379a565b602082019050919050565b600060208201905081810360008301526137ff816137c3565b9050919050565b7f416c726561647920737461727465640000000000000000000000000000000000600082015250565b600061383c600f83612a2b565b915061384782613806565b602082019050919050565b6000602082019050818103600083015261386b8161382f565b9050919050565b7f4e6f2063616e6469646174657300000000000000000000000000000000000000600082015250565b60006138a8600d83612a2b565b91506138b382613872565b602082019050919050565b600060208201905081810360008301526138d78161389b565b9050919050565b7f456c656374696f6e206e6f7420656e6465640000000000000000000000000000600082015250565b6000613914601283612a2b565b915061391f826138de565b602082019050919050565b6000602082019050818103600083015261394381613907565b9050919050565b7f4e6f20766f746572732061646465640000000000000000000000000000000000600082015250565b6000613980600f83612a2b565b915061398b8261394a565b602082019050919050565b600060208201905081810360008301526139af81613973565b905091905056fea264697066735822122041b7f28f967c55c6eb90b57f1acce19819e9b34c7d0f7c24dada8074205afcb564736f6c634300081c0033",
  "linkReferences": {},
  "deployedLinkReferences": {}
}