{
  "_format": "hh-sol-artifact-1",
  "contractName": "Election",
  "sourceName": "contracts/Election.sol",
  "abi": [
    {
      "inputs": [],
      "stateMutability": "nonpayable",
      "type": "constructor"
    },
    {
      "anonymous": false,
      "inputs": [
        {
          "indexed": false,
          "internalType": "uint256",
          "name": "candidateId",
          "type": "uint256"
        },
        {
          "indexed": false,
          "internalType": "string",
          "name": "name",
          "type": "string"
        }
      ],
      "name": "CandidateAdded",
      "type": "event"
    },
    {
      "anonymous": false,
      "inputs": [],
      "name": "ElectionEnded",
      "type": "event"
    },
    {
      "anonymous": false,
      "inputs": [],
      "name": "ElectionStarted",
      "type": "event"
    },
    {
      "anonymous": false,
      "inputs": [],
      "name": "ResetElection",
      "type": "event"
    },
    {
      "anonymous": false,
      "inputs": [
        {
          "indexed": false,
          "internalType": "address",
          "name": "voter",
          "type": "address"
        },
        {
          "indexed": false,
          "internalType": "uint256",
          "name": "candidateId",
          "type": "uint256"
        }
      ],
      "name": "VoteCasted",
      "type": "event"
    },
    {
      "anonymous": false,
      "inputs": [
        {
          "indexed": false,
          "internalType": "address",
          "name": "voter",
          "type": "address"
        }
      ],
      "name": "VoterRegistered",
      "type": "event"
    },
    {
      "inputs": [
        {
          "internalType": "string",
          "name": "_name",
          "type": "string"
        }
      ],
      "name": "addCandidate",
      "outputs": [],
      "stateMutability": "nonpayable",
      "type": "function"
    },
    {
      "inputs": [],
      "name": "admin",
      "outputs": [
        {
          "internalType": "address",
          "name": "",
          "type": "address"
        }
      ],
      "stateMutability": "view",
      "type": "function"
    },
    {
      "inputs": [
        {
          "internalType": "uint256",
          "name": "",
          "type": "uint256"
        }
      ],
      "name": "candidates",
      "outputs": [
        {
          "internalType": "uint256",
          "name": "id",
          "type": "uint256"
        },
        {
          "internalType": "string",
          "name": "name",
          "type": "string"
        },
        {
          "internalType": "uint256",
          "name": "voteCount",
          "type": "uint256"
        }
      ],
      "stateMutability": "view",
      "type": "function"
    },
    {
      "inputs": [],
      "name": "candidatesCount",
      "outputs": [
        {
          "internalType": "uint256",
          "name": "",
          "type": "uint256"
        }
      ],
      "stateMutability": "view",
      "type": "function"
    },
    {
      "inputs": [],
      "name": "electionActive",
      "outputs": [
        {
          "internalType": "bool",
          "name": "",
          "type": "bool"
        }
      ],
      "stateMutability": "view",
      "type": "function"
    },
    {
      "inputs": [],
      "name": "endElection",
      "outputs": [],
      "stateMutability": "nonpayable",
      "type": "function"
    },
    {
      "inputs": [
        {
          "internalType": "uint256",
          "name": "_id",
          "type": "uint256"
        }
      ],
      "name": "getCandidate",
      "outputs": [
        {
          "internalType": "uint256",
          "name": "",
          "type": "uint256"
        },
        {
          "internalType": "string",
          "name": "",
          "type": "string"
        },
        {
          "internalType": "uint256",
          "name": "",
          "type": "uint256"
        }
      ],
      "stateMutability": "view",
      "type": "function"
    },
    {
      "inputs": [],
      "name": "getWinner",
      "outputs": [
        {
          "internalType": "string",
          "name": "winnerName",
          "type": "string"
        },
        {
          "internalType": "uint256",
          "name": "winnerVotes",
          "type": "uint256"
        }
      ],
      "stateMutability": "view",
      "type": "function"
    },
    {
      "inputs": [
        {
          "internalType": "address",
          "name": "_voterAddress",
          "type": "address"
        }
      ],
      "name": "registerVoter",
      "outputs": [],
      "stateMutability": "nonpayable",
      "type": "function"
    },
    {
      "inputs": [],
      "name": "resetElection",
      "outputs": [],
      "stateMutability": "nonpayable",
      "type": "function"
    },
    {
      "inputs": [],
      "name": "startElection",
      "outputs": [],
      "stateMutability": "nonpayable",
      "type": "function"
    },
    {
      "inputs": [
        {
          "internalType": "uint256",
          "name": "_candidateId",
          "type": "uint256"
        }
      ],
      "name": "vote",
      "outputs": [],
      "stateMutability": "nonpayable",
      "type": "function"
    },
    {
      "inputs": [
        {
          "internalType": "address",
          "name": "",
          "type": "address"
        }
      ],
      "name": "voters",
      "outputs": [
        {
          "internalType": "bool",
          "name": "isRegistered",
          "type": "bool"
        },
        {
          "internalType": "bool",
          "name": "hasVoted",
          "type": "bool"
        },
        {
          "internalType": "uint256",
          "name": "votedCandidateId",
          "type": "uint256"
        }
      ],
      "stateMutability": "view",
      "type": "function"
    }
  ],
  "bytecode": "0x6080604052348015600f57600080fd5b50336000806101000a81548173ffffffffffffffffffffffffffffffffffffffff021916908373ffffffffffffffffffffffffffffffffffffffff16021790555060008060146101000a81548160ff021916908315150217905550611cea806100796000396000f3fe608060405234801561001057600080fd5b50600436106100cf5760003560e01c806359f784681161008c5780638e7ea5b2116100665780638e7ea5b2146101dc578063a3ec138d146101fb578063e8f305231461022d578063f851a44014610237576100cf565b806359f78468146101aa57806362d73eb8146101b45780637ed628bb146101be576100cf565b80630121b93f146100d45780632d35a8a2146100f05780633477ee2e1461010e57806335b8e8201461014057806338db6dd314610172578063462e91ec1461018e575b600080fd5b6100ee60048036038101906100e99190611047565b610255565b005b6100f861051e565b6040516101059190611083565b60405180910390f35b61012860048036038101906101239190611047565b610524565b6040516101379392919061112e565b60405180910390f35b61015a60048036038101906101559190611047565b6105d6565b6040516101699392919061112e565b60405180910390f35b61018c600480360381019061018791906111ca565b6106c0565b005b6101a860048036038101906101a3919061132c565b610873565b005b6101b26109fb565b005b6101bc610b20565b005b6101c6610c8c565b6040516101d39190611390565b60405180910390f35b6101e4610c9f565b6040516101f29291906113ab565b60405180910390f35b610215600480360381019061021091906111ca565b610dff565b604051610224939291906113db565b60405180910390f35b610235610e43565b005b61023f610f7c565b60405161024c9190611421565b60405180910390f35b600060149054906101000a900460ff166102a4576040517f08c379a000000000000000000000000000000000000000000000000000000000815260040161029b90611488565b60405180910390fd5b600360003373ffffffffffffffffffffffffffffffffffffffff1673ffffffffffffffffffffffffffffffffffffffff16815260200190815260200160002060000160009054906101000a900460ff16610333576040517f08c379a000000000000000000000000000000000000000000000000000000000815260040161032a906114f4565b60405180910390fd5b600360003373ffffffffffffffffffffffffffffffffffffffff1673ffffffffffffffffffffffffffffffffffffffff16815260200190815260200160002060000160019054906101000a900460ff16156103c3576040517f08c379a00000000000000000000000000000000000000000000000000000000081526004016103ba90611560565b60405180910390fd5b6000811180156103d557506002548111155b610414576040517f08c379a000000000000000000000000000000000000000000000000000000000815260040161040b906115cc565b60405180910390fd5b6001600360003373ffffffffffffffffffffffffffffffffffffffff1673ffffffffffffffffffffffffffffffffffffffff16815260200190815260200160002060000160016101000a81548160ff02191690831515021790555080600360003373ffffffffffffffffffffffffffffffffffffffff1673ffffffffffffffffffffffffffffffffffffffff168152602001908152602001600020600101819055506001600082815260200190815260200160002060020160008154809291906104dd9061161b565b91905055507fd0e6c39f2e086dc49f1524b47725526a56945cd1ff661f37976f1725a1e569863382604051610513929190611663565b60405180910390a150565b60025481565b600160205280600052604060002060009150905080600001549080600101805461054d906116bb565b80601f0160208091040260200160405190810160405280929190818152602001828054610579906116bb565b80156105c65780601f1061059b576101008083540402835291602001916105c6565b820191906000526020600020905b8154815290600101906020018083116105a957829003601f168201915b5050505050908060020154905083565b600060606000806001600086815260200190815260200160002060405180606001604052908160008201548152602001600182018054610615906116bb565b80601f0160208091040260200160405190810160405280929190818152602001828054610641906116bb565b801561068e5780601f106106635761010080835404028352916020019161068e565b820191906000526020600020905b81548152906001019060200180831161067157829003601f168201915b505050505081526020016002820154815250509050806000015181602001518260400151935093509350509193909250565b60008054906101000a900473ffffffffffffffffffffffffffffffffffffffff1673ffffffffffffffffffffffffffffffffffffffff163373ffffffffffffffffffffffffffffffffffffffff161461074e576040517f08c379a00000000000000000000000000000000000000000000000000000000081526004016107459061175e565b60405180910390fd5b600360008273ffffffffffffffffffffffffffffffffffffffff1673ffffffffffffffffffffffffffffffffffffffff16815260200190815260200160002060000160009054906101000a900460ff16156107de576040517f08c379a00000000000000000000000000000000000000000000000000000000081526004016107d5906117ca565b60405180910390fd5b6001600360008373ffffffffffffffffffffffffffffffffffffffff1673ffffffffffffffffffffffffffffffffffffffff16815260200190815260200160002060000160006101000a81548160ff0219169083151502179055507fb6be2187d059cc2a55fe29e0e503b566e1e0f8c8780096e185429350acffd3dd816040516108689190611421565b60405180910390a150565b60008054906101000a900473ffffffffffffffffffffffffffffffffffffffff1673ffffffffffffffffffffffffffffffffffffffff163373ffffffffffffffffffffffffffffffffffffffff1614610901576040517f08c379a00000000000000000000000000000000000000000000000000000000081526004016108f89061175e565b60405180910390fd5b6000815111610945576040517f08c379a000000000000000000000000000000000000000000000000000000000815260040161093c90611836565b60405180910390fd5b600260008154809291906109589061161b565b91905055506040518060600160405280600254815260200182815260200160008152506001600060025481526020019081526020016000206000820151816000015560208201518160010190816109af9190611a02565b50604082015181600201559050507fe83b2a43e7e82d975c8a0a6d2f045153c869e111136a34d1889ab7b598e396a3600254826040516109f0929190611ad4565b60405180910390a150565b60008054906101000a900473ffffffffffffffffffffffffffffffffffffffff1673ffffffffffffffffffffffffffffffffffffffff163373ffffffffffffffffffffffffffffffffffffffff1614610a89576040517f08c379a0000000000000000000000000000000000000000000000000000000008152600401610a809061175e565b60405180910390fd5b600060149054906101000a900460ff16610ad8576040517f08c379a0000000000000000000000000000000000000000000000000000000008152600401610acf90611b50565b60405180910390fd5b60008060146101000a81548160ff0219169083151502179055507f66ec723071e4bb646f7b35d31bc2dee8510979bd8c180edd0690d4f5e802f1e460405160405180910390a1565b60008054906101000a900473ffffffffffffffffffffffffffffffffffffffff1673ffffffffffffffffffffffffffffffffffffffff163373ffffffffffffffffffffffffffffffffffffffff1614610bae576040517f08c379a0000000000000000000000000000000000000000000000000000000008152600401610ba59061175e565b60405180910390fd5b600060149054906101000a900460ff1615610bfe576040517f08c379a0000000000000000000000000000000000000000000000000000000008152600401610bf590611bbc565b60405180910390fd5b600060025411610c43576040517f08c379a0000000000000000000000000000000000000000000000000000000008152600401610c3a90611c28565b60405180910390fd5b6001600060146101000a81548160ff0219169083151502179055507fc475c26aa25ed8e85a7faa790e5f63b5d7ee1025f12821f4c9bfddd36ab4d11260405160405180910390a1565b600060149054906101000a900460ff1681565b606060008060149054906101000a900460ff1615610cf2576040517f08c379a0000000000000000000000000000000000000000000000000000000008152600401610ce990611c94565b60405180910390fd5b600060606000600190505b6002548111610df2578260016000838152602001908152602001600020600201541115610ddf5760016000828152602001908152602001600020600201549250600160008281526020019081526020016000206001018054610d5e906116bb565b80601f0160208091040260200160405190810160405280929190818152602001828054610d8a906116bb565b8015610dd75780601f10610dac57610100808354040283529160200191610dd7565b820191906000526020600020905b815481529060010190602001808311610dba57829003601f168201915b505050505091505b8080610dea9061161b565b915050610cfd565b5080829350935050509091565b60036020528060005260406000206000915090508060000160009054906101000a900460ff16908060000160019054906101000a900460ff16908060010154905083565b60008054906101000a900473ffffffffffffffffffffffffffffffffffffffff1673ffffffffffffffffffffffffffffffffffffffff163373ffffffffffffffffffffffffffffffffffffffff1614610ed1576040517f08c379a0000000000000000000000000000000000000000000000000000000008152600401610ec89061175e565b60405180910390fd5b6000600190505b6002548111610f2a5760016000828152602001908152602001600020600080820160009055600182016000610f0d9190610fa0565b600282016000905550508080610f229061161b565b915050610ed8565b50600060028190555060005b6103e8811015610f4d578080600101915050610f36565b507f653f143b0f65caf97199c94ab208a5ff52424b7ee35dd6356adefb27aac9268560405160405180910390a1565b60008054906101000a900473ffffffffffffffffffffffffffffffffffffffff1681565b508054610fac906116bb565b6000825580601f10610fbe5750610fdd565b601f016020900490600052602060002090810190610fdc9190610fe0565b5b50565b5b80821115610ff9576000816000905550600101610fe1565b5090565b6000604051905090565b600080fd5b600080fd5b6000819050919050565b61102481611011565b811461102f57600080fd5b50565b6000813590506110418161101b565b92915050565b60006020828403121561105d5761105c611007565b5b600061106b84828501611032565b91505092915050565b61107d81611011565b82525050565b60006020820190506110986000830184611074565b92915050565b600081519050919050565b600082825260208201905092915050565b60005b838110156110d85780820151818401526020810190506110bd565b60008484015250505050565b6000601f19601f8301169050919050565b60006111008261109e565b61110a81856110a9565b935061111a8185602086016110ba565b611123816110e4565b840191505092915050565b60006060820190506111436000830186611074565b818103602083015261115581856110f5565b90506111646040830184611074565b949350505050565b600073ffffffffffffffffffffffffffffffffffffffff82169050919050565b60006111978261116c565b9050919050565b6111a78161118c565b81146111b257600080fd5b50565b6000813590506111c48161119e565b92915050565b6000602082840312156111e0576111df611007565b5b60006111ee848285016111b5565b91505092915050565b600080fd5b600080fd5b7f4e487b7100000000000000000000000000000000000000000000000000000000600052604160045260246000fd5b611239826110e4565b810181811067ffffffffffffffff8211171561125857611257611201565b5b80604052505050565b600061126b610ffd565b90506112778282611230565b919050565b600067ffffffffffffffff82111561129757611296611201565b5b6112a0826110e4565b9050602081019050919050565b82818337600083830152505050565b60006112cf6112ca8461127c565b611261565b9050828152602081018484840111156112eb576112ea6111fc565b5b6112f68482856112ad565b509392505050565b600082601f830112611313576113126111f7565b5b81356113238482602086016112bc565b91505092915050565b60006020828403121561134257611341611007565b5b600082013567ffffffffffffffff8111156113605761135f61100c565b5b61136c848285016112fe565b91505092915050565b60008115159050919050565b61138a81611375565b82525050565b60006020820190506113a56000830184611381565b92915050565b600060408201905081810360008301526113c581856110f5565b90506113d46020830184611074565b9392505050565b60006060820190506113f06000830186611381565b6113fd6020830185611381565b61140a6040830184611074565b949350505050565b61141b8161118c565b82525050565b60006020820190506114366000830184611412565b92915050565b7f456c656374696f6e206973206e6f742061637469766500000000000000000000600082015250565b60006114726016836110a9565b915061147d8261143c565b602082019050919050565b600060208201905081810360008301526114a181611465565b9050919050565b7f596f7520617265206e6f74207265676973746572656400000000000000000000600082015250565b60006114de6016836110a9565b91506114e9826114a8565b602082019050919050565b6000602082019050818103600083015261150d816114d1565b9050919050565b7f416c726561647920766f74656400000000000000000000000000000000000000600082015250565b600061154a600d836110a9565b915061155582611514565b602082019050919050565b600060208201905081810360008301526115798161153d565b9050919050565b7f496e76616c69642063616e646964617465000000000000000000000000000000600082015250565b60006115b66011836110a9565b91506115c182611580565b602082019050919050565b600060208201905081810360008301526115e5816115a9565b9050919050565b7f4e487b7100000000000000000000000000000000000000000000000000000000600052601160045260246000fd5b600061162682611011565b91507fffffffffffffffffffffffffffffffffffffffffffffffffffffffffffffffff8203611658576116576115ec565b5b600182019050919050565b60006040820190506116786000830185611412565b6116856020830184611074565b9392505050565b7f4e487b7100000000000000000000000000000000000000000000000000000000600052602260045260246000fd5b600060028204905060018216806116d357607f821691505b6020821081036116e6576116e561168c565b5b50919050565b7f4f6e6c792061646d696e2063616e20706572666f726d2074686973206163746960008201527f6f6e000000000000000000000000000000000000000000000000000000000000602082015250565b60006117486022836110a9565b9150611753826116ec565b604082019050919050565b600060208201905081810360008301526117778161173b565b9050919050565b7f566f74657220616c726561647920726567697374657265640000000000000000600082015250565b60006117b46018836110a9565b91506117bf8261177e565b602082019050919050565b600060208201905081810360008301526117e3816117a7565b9050919050565b7f43616e646964617465206e616d65207265717569726564000000000000000000600082015250565b60006118206017836110a9565b915061182b826117ea565b602082019050919050565b6000602082019050818103600083015261184f81611813565b9050919050565b60008190508160005260206000209050919050565b60006020601f8301049050919050565b600082821b905092915050565b6000600883026118b87fffffffffffffffffffffffffffffffffffffffffffffffffffffffffffffffff8261187b565b6118c2868361187b565b95508019841693508086168417925050509392505050565b6000819050919050565b60006118ff6118fa6118f584611011565b6118da565b611011565b9050919050565b6000819050919050565b611919836118e4565b61192d61192582611906565b848454611888565b825550505050565b600090565b611942611935565b61194d818484611910565b505050565b5b818110156119715761196660008261193a565b600181019050611953565b5050565b601f8211156119b65761198781611856565b6119908461186b565b8101602085101561199f578190505b6119b36119ab8561186b565b830182611952565b50505b505050565b600082821c905092915050565b60006119d9600019846008026119bb565b1980831691505092915050565b60006119f283836119c8565b9150826002028217905092915050565b611a0b8261109e565b67ffffffffffffffff811115611a2457611a23611201565b5b611a2e82546116bb565b611a39828285611975565b600060209050601f831160018114611a6c5760008415611a5a578287015190505b611a6485826119e6565b865550611acc565b601f198416611a7a86611856565b60005b82811015611aa257848901518255600182019150602085019450602081019050611a7d565b86831015611abf5784890151611abb601f8916826119c8565b8355505b6001600288020188555050505b505050505050565b6000604082019050611ae96000830185611074565b8181036020830152611afb81846110f5565b90509392505050565b7f456c656374696f6e206e6f742061637469766500000000000000000000000000600082015250565b6000611b3a6013836110a9565b9150611b4582611b04565b602082019050919050565b60006020820190508181036000830152611b6981611b2d565b9050919050565b7f456c656374696f6e20616c726561647920616374697665000000000000000000600082015250565b6000611ba66017836110a9565b9150611bb182611b70565b602082019050919050565b60006020820190508181036000830152611bd581611b99565b9050919050565b7f4e6f2063616e6469646174657320616464656400000000000000000000000000600082015250565b6000611c126013836110a9565b9150611c1d82611bdc565b602082019050919050565b60006020820190508181036000830152611c4181611c05565b9050919050565b7f456c656374696f6e206d75737420626520656e64656420666972737400000000600082015250565b6000611c7e601c836110a9565b9150611c8982611c48565b602082019050919050565b60006020820190508181036000830152611cad81611c71565b905091905056fea264697066735822122045e3f368134c1441442ddd16784a712ebd57c9cd883bcb99c8d1bd44bc8d6b9164736f6c634300081c0033",
  "linkReferences": {},
  "deployedLinkReferences": {}
}