{
  "_format": "hh-sol-artifact-1",
  "contractName": "ElectionFactory",
  "sourceName": "contracts/ElectionFactory.sol",
  "abi": [
    {
      "anonymous": false,
      "inputs": [
        {
          "indexed": true,
          "internalType": "address",
          "name": "admin",
          "type": "address"
        },
        {
          "indexed": true,
          "internalType": "address",
          "name": "electionAddress",
          "type": "address"
        },
        {
          "indexed": false,
          "internalType": "string",
          "name": "title",
          "type": "string"
        }
      ],
      "name": "ElectionCreated",
      "type": "event"
    },
    {
      "inputs": [
        {
          "internalType": "string",
          "name": "_title",
          "type": "string"
        }
      ],
      "name": "createElection",
      "outputs": [
        {
          "internalType": "address",
          "name": "",
          "type": "address"
        }
      ],
      "stateMutability": "nonpayable",
      "type": "function"
    },
    {
      "inputs": [
        {
          "internalType": "uint256",
          "name": "",
          "type": "uint256"
        }
      ],
      "name": "elections",
      "outputs": [
        {
          "internalType": "address",
          "name": "admin",
          "type": "address"
        },
        {
          "internalType": "address",
          "name": "electionAddress",
          "type": "address"
        },
        {
          "internalType": "string",
          "name": "title",
          "type": "string"
        }
      ],
      "stateMutability": "view",
      "type": "function"
    },
    {
      "inputs": [],
      "name": "getAllElections",
      "outputs": [
        {
          "internalType": "address[]",
          "name": "",
          "type": "address[]"
        }
      ],
      "stateMutability": "view",
      "type": "function"
    },
    {
      "inputs": [
        {
          "internalType": "uint256",
          "name": "index",
          "type": "uint256"
        }
      ],
      "name": "getElection",
      "outputs": [
        {
          "internalType": "address",
          "name": "admin",
          "type": "address"
        },
        {
          "internalType": "address",
          "name": "electionAddress",
          "type": "address"
        },
        {
          "internalType": "string",
          "name": "title",
          "type": "string"
        }
      ],
      "stateMutability": "view",
      "type": "function"
    },
    {
      "inputs": [],
      "name": "getElectionsCount",
      "outputs": [
        {
          "internalType": "uint256",
          "name": "",
          "type": "uint256"
        }
      ],
      "stateMutability": "view",
      "type": "function"
    }
  ],
  "bytecode": "0x6080604052348015600f57600080fd5b50615c928061001f6000396000f3fe608060405234801561001057600080fd5b50600436106100575760003560e01c806315cf4a5f1461005c5780635e6fef011461008c5780637fd5f268146100be5780639d710777146100dc578063b1bb6ec31461010e575b600080fd5b6100766004803603810190610071919061072a565b61012c565b60405161008391906107b8565b60405180910390f35b6100a660048036038101906100a19190610809565b61033c565b6040516100b5939291906108c6565b60405180910390f35b6100c661043e565b6040516100d391906109c2565b60405180910390f35b6100f660048036038101906100f19190610809565b610549565b604051610105939291906108c6565b60405180910390f35b6101166106a2565b60405161012391906109f3565b60405180910390f35b60008033848460405161013e906106ae565b61014a93929190610a4a565b604051809103906000f080158015610166573d6000803e3d6000fd5b5090506000819050600060405180606001604052803373ffffffffffffffffffffffffffffffffffffffff1681526020018373ffffffffffffffffffffffffffffffffffffffff16815260200187878080601f016020809104026020016040519081016040528093929190818152602001838380828437600081840152601f19601f82011690508083019250505050505050815250908060018154018082558091505060019003906000526020600020906003020160009091909190915060008201518160000160006101000a81548173ffffffffffffffffffffffffffffffffffffffff021916908373ffffffffffffffffffffffffffffffffffffffff16021790555060208201518160010160006101000a81548173ffffffffffffffffffffffffffffffffffffffff021916908373ffffffffffffffffffffffffffffffffffffffff16021790555060408201518160020190816102c79190610cb7565b5050508073ffffffffffffffffffffffffffffffffffffffff163373ffffffffffffffffffffffffffffffffffffffff167f58701c4cb084eb3ec4467a6e962ae496cd129cdf7866dfbcea73b56149b88e858787604051610329929190610d89565b60405180910390a3809250505092915050565b6000818154811061034c57600080fd5b90600052602060002090600302016000915090508060000160009054906101000a900473ffffffffffffffffffffffffffffffffffffffff16908060010160009054906101000a900473ffffffffffffffffffffffffffffffffffffffff16908060020180546103bb90610ada565b80601f01602080910402602001604051908101604052809291908181526020018280546103e790610ada565b80156104345780601f1061040957610100808354040283529160200191610434565b820191906000526020600020905b81548152906001019060200180831161041757829003601f168201915b5050505050905083565b60606000808054905067ffffffffffffffff8111156104605761045f610a7c565b5b60405190808252806020026020018201604052801561048e5781602001602082028036833780820191505090505b50905060005b60008054905081101561054157600081815481106104b5576104b4610dad565b5b906000526020600020906003020160010160009054906101000a900473ffffffffffffffffffffffffffffffffffffffff168282815181106104fa576104f9610dad565b5b602002602001019073ffffffffffffffffffffffffffffffffffffffff16908173ffffffffffffffffffffffffffffffffffffffff16815250508080600101915050610494565b508091505090565b60008060606000805490508410610595576040517f08c379a000000000000000000000000000000000000000000000000000000000815260040161058c90610e28565b60405180910390fd5b60008085815481106105aa576105a9610dad565b5b906000526020600020906003020190508060000160009054906101000a900473ffffffffffffffffffffffffffffffffffffffff168160010160009054906101000a900473ffffffffffffffffffffffffffffffffffffffff168260020180805461061490610ada565b80601f016020809104026020016040519081016040528092919081815260200182805461064090610ada565b801561068d5780601f106106625761010080835404028352916020019161068d565b820191906000526020600020905b81548152906001019060200180831161067057829003601f168201915b50505050509050935093509350509193909250565b60008080549050905090565b614e1480610e4983390190565b600080fd5b600080fd5b600080fd5b600080fd5b600080fd5b60008083601f8401126106ea576106e96106c5565b5b8235905067ffffffffffffffff811115610707576107066106ca565b5b602083019150836001820283011115610723576107226106cf565b5b9250929050565b60008060208385031215610741576107406106bb565b5b600083013567ffffffffffffffff81111561075f5761075e6106c0565b5b61076b858286016106d4565b92509250509250929050565b600073ffffffffffffffffffffffffffffffffffffffff82169050919050565b60006107a282610777565b9050919050565b6107b281610797565b82525050565b60006020820190506107cd60008301846107a9565b92915050565b6000819050919050565b6107e6816107d3565b81146107f157600080fd5b50565b600081359050610803816107dd565b92915050565b60006020828403121561081f5761081e6106bb565b5b600061082d848285016107f4565b91505092915050565b600081519050919050565b600082825260208201905092915050565b60005b83811015610870578082015181840152602081019050610855565b60008484015250505050565b6000601f19601f8301169050919050565b600061089882610836565b6108a28185610841565b93506108b2818560208601610852565b6108bb8161087c565b840191505092915050565b60006060820190506108db60008301866107a9565b6108e860208301856107a9565b81810360408301526108fa818461088d565b9050949350505050565b600081519050919050565b600082825260208201905092915050565b6000819050602082019050919050565b61093981610797565b82525050565b600061094b8383610930565b60208301905092915050565b6000602082019050919050565b600061096f82610904565b610979818561090f565b935061098483610920565b8060005b838110156109b557815161099c888261093f565b97506109a783610957565b925050600181019050610988565b5085935050505092915050565b600060208201905081810360008301526109dc8184610964565b905092915050565b6109ed816107d3565b82525050565b6000602082019050610a0860008301846109e4565b92915050565b82818337600083830152505050565b6000610a298385610841565b9350610a36838584610a0e565b610a3f8361087c565b840190509392505050565b6000604082019050610a5f60008301866107a9565b8181036020830152610a72818486610a1d565b9050949350505050565b7f4e487b7100000000000000000000000000000000000000000000000000000000600052604160045260246000fd5b7f4e487b7100000000000000000000000000000000000000000000000000000000600052602260045260246000fd5b60006002820490506001821680610af257607f821691505b602082108103610b0557610b04610aab565b5b50919050565b60008190508160005260206000209050919050565b60006020601f8301049050919050565b600082821b905092915050565b600060088302610b6d7fffffffffffffffffffffffffffffffffffffffffffffffffffffffffffffffff82610b30565b610b778683610b30565b95508019841693508086168417925050509392505050565b6000819050919050565b6000610bb4610baf610baa846107d3565b610b8f565b6107d3565b9050919050565b6000819050919050565b610bce83610b99565b610be2610bda82610bbb565b848454610b3d565b825550505050565b600090565b610bf7610bea565b610c02818484610bc5565b505050565b5b81811015610c2657610c1b600082610bef565b600181019050610c08565b5050565b601f821115610c6b57610c3c81610b0b565b610c4584610b20565b81016020851015610c54578190505b610c68610c6085610b20565b830182610c07565b50505b505050565b600082821c905092915050565b6000610c8e60001984600802610c70565b1980831691505092915050565b6000610ca78383610c7d565b9150826002028217905092915050565b610cc082610836565b67ffffffffffffffff811115610cd957610cd8610a7c565b5b610ce38254610ada565b610cee828285610c2a565b600060209050601f831160018114610d215760008415610d0f578287015190505b610d198582610c9b565b865550610d81565b601f198416610d2f86610b0b565b60005b82811015610d5757848901518255600182019150602085019450602081019050610d32565b86831015610d745784890151610d70601f891682610c7d565b8355505b6001600288020188555050505b505050505050565b60006020820190508181036000830152610da4818486610a1d565b90509392505050565b7f4e487b7100000000000000000000000000000000000000000000000000000000600052603260045260246000fd5b7f4f7574206f6620626f756e647300000000000000000000000000000000000000600082015250565b6000610e12600d83610841565b9150610e1d82610ddc565b602082019050919050565b60006020820190508181036000830152610e4181610e05565b905091905056fe608060405234801561001057600080fd5b50604051614e14380380614e148339818101604052810190610032919061039e565b600073ffffffffffffffffffffffffffffffffffffffff168273ffffffffffffffffffffffffffffffffffffffff16036100a1576040517f08c379a000000000000000000000000000000000000000000000000000000000815260040161009890610457565b60405180910390fd5b816000806101000a81548173ffffffffffffffffffffffffffffffffffffffff021916908373ffffffffffffffffffffffffffffffffffffffff16021790555080600190816100f09190610698565b506000600260006101000a81548160ff0219169083151502179055506000600260016101000a81548160ff02191690831515021790555060006002806101000a81548160ff0219169083151502179055506000600a8190555060008054906101000a900473ffffffffffffffffffffffffffffffffffffffff1673ffffffffffffffffffffffffffffffffffffffff16600073ffffffffffffffffffffffffffffffffffffffff167f8be0079c531659141344cd1fd0a4f28419497f9722a3daafe3b4186f6b6457e060405160405180910390a3505061076a565b6000604051905090565b600080fd5b600080fd5b600073ffffffffffffffffffffffffffffffffffffffff82169050919050565b600061020a826101df565b9050919050565b61021a816101ff565b811461022557600080fd5b50565b60008151905061023781610211565b92915050565b600080fd5b600080fd5b6000601f19601f8301169050919050565b7f4e487b7100000000000000000000000000000000000000000000000000000000600052604160045260246000fd5b61029082610247565b810181811067ffffffffffffffff821117156102af576102ae610258565b5b80604052505050565b60006102c26101cb565b90506102ce8282610287565b919050565b600067ffffffffffffffff8211156102ee576102ed610258565b5b6102f782610247565b9050602081019050919050565b60005b83811015610322578082015181840152602081019050610307565b60008484015250505050565b600061034161033c846102d3565b6102b8565b90508281526020810184848401111561035d5761035c610242565b5b610368848285610304565b509392505050565b600082601f8301126103855761038461023d565b5b815161039584826020860161032e565b91505092915050565b600080604083850312156103b5576103b46101d5565b5b60006103c385828601610228565b925050602083015167ffffffffffffffff8111156103e4576103e36101da565b5b6103f085828601610370565b9150509250929050565b600082825260208201905092915050565b7f496e76616c69642063726561746f720000000000000000000000000000000000600082015250565b6000610441600f836103fa565b915061044c8261040b565b602082019050919050565b6000602082019050818103600083015261047081610434565b9050919050565b600081519050919050565b7f4e487b7100000000000000000000000000000000000000000000000000000000600052602260045260246000fd5b600060028204905060018216806104c957607f821691505b6020821081036104dc576104db610482565b5b50919050565b60008190508160005260206000209050919050565b60006020601f8301049050919050565b600082821b905092915050565b6000600883026105447fffffffffffffffffffffffffffffffffffffffffffffffffffffffffffffffff82610507565b61054e8683610507565b95508019841693508086168417925050509392505050565b6000819050919050565b6000819050919050565b600061059561059061058b84610566565b610570565b610566565b9050919050565b6000819050919050565b6105af8361057a565b6105c36105bb8261059c565b848454610514565b825550505050565b600090565b6105d86105cb565b6105e38184846105a6565b505050565b5b81811015610607576105fc6000826105d0565b6001810190506105e9565b5050565b601f82111561064c5761061d816104e2565b610626846104f7565b81016020851015610635578190505b610649610641856104f7565b8301826105e8565b50505b505050565b600082821c905092915050565b600061066f60001984600802610651565b1980831691505092915050565b6000610688838361065e565b9150826002028217905092915050565b6106a182610477565b67ffffffffffffffff8111156106ba576106b9610258565b5b6106c482546104b1565b6106cf82828561060b565b600060209050601f83116001811461070257600084156106f0578287015190505b6106fa858261067c565b865550610762565b601f198416610710866104e2565b60005b8281101561073857848901518255600182019150602085019450602081019050610713565b868310156107555784890151610751601f89168261065e565b8355505b6001600288020188555050505b505050505050565b61469b806107796000396000f3fe608060405234801561001057600080fd5b50600436106101e55760003560e01c806359f784681161010f5780638e7ea5b2116100a2578063bb9c67d011610071578063bb9c67d0146105b5578063c3c5a547146105bf578063eceed339146105ef578063f2fde38b14610610576101e5565b80638e7ea5b2146105055780639a7abcfc14610525578063a9ff6df114610555578063b7840a1c14610585576101e5565b8063729a41b1116100de578063729a41b1146104535780637d112d64146104865780637f247e49146104b75780638da5cb5b146104e7576101e5565b806359f78468146103f15780635ca5e0f8146103fb5780635f5300ff1461042b57806362d73eb814610449576101e5565b80633477ee2e11610187578063462e91ec11610156578063462e91ec1461037a5780634a79d50c146103965780634e9a9843146103b457806358305496146103d2576101e5565b80633477ee2e146102c857806335b8e820146102fa57806338db6dd31461032c57806342f3520614610348576101e5565b80631f2698ab116101c35780631f2698ab1461025457806326d1183d1461027257806329f5774c1461028e5780632d35a8a2146102aa576101e5565b80630121b93f146101ea57806309eef43e1461020657806312fa6feb14610236575b600080fd5b61020460048036038101906101ff9190612f8b565b61062c565b005b610220600480360381019061021b9190613016565b610a80565b60405161022d919061305e565b60405180910390f35b61023e610aa0565b60405161024b919061305e565b60405180910390f35b61025c610ab3565b604051610269919061305e565b60405180910390f35b61028c60048036038101906102879190613134565b610ac6565b005b6102a860048036038101906102a39190613329565b6112f3565b005b6102b261179f565b6040516102bf91906133c3565b60405180910390f35b6102e260048036038101906102dd9190612f8b565b6117a5565b6040516102f19392919061345d565b60405180910390f35b610314600480360381019061030f9190612f8b565b611857565b6040516103239392919061345d565b60405180910390f35b61034660048036038101906103419190613016565b61196c565b005b610362600480360381019061035d919061349b565b611be4565b604051610371939291906134f3565b60405180910390f35b610394600480360381019061038f919061349b565b611dc8565b005b61039e611f9f565b6040516103ab9190613531565b60405180910390f35b6103bc61202d565b6040516103c9919061305e565b60405180910390f35b6103da61203e565b6040516103e8929190613553565b60405180910390f35b6103f961205a565b005b61041560048036038101906104109190612f8b565b6121b4565b6040516104229190613531565b60405180910390f35b610433612260565b60405161044091906133c3565b60405180910390f35b610451612266565b005b61046d6004803603810190610468919061349b565b6123ed565b60405161047d949392919061357c565b60405180910390f35b6104a0600480360381019061049b919061349b565b612570565b6040516104ae9291906135cf565b60405180910390f35b6104d160048036038101906104cc9190613016565b612749565b6040516104de919061305e565b60405180910390f35b6104ef6127a0565b6040516104fc91906135ff565b60405180910390f35b61050d6127c4565b60405161051c9392919061345d565b60405180910390f35b61053f600480360381019061053a9190613016565b612964565b60405161054c9190613531565b60405180910390f35b61056f600480360381019061056a9190613016565b612a04565b60405161057c919061305e565b60405180910390f35b61059f600480360381019061059a9190613016565b612a24565b6040516105ac9190613531565b60405180910390f35b6105bd612af5565b005b6105d960048036038101906105d49190613016565b612c6b565b6040516105e6919061305e565b60405180910390f35b6105f7612cc1565b604051610607949392919061361a565b60405180910390f35b61062a60048036038101906106259190613016565b612d87565b005b600260009054906101000a900460ff1680156106555750600260019054906101000a900460ff16155b610694576040517f08c379a000000000000000000000000000000000000000000000000000000000815260040161068b906136b2565b60405180910390fd5b6000600860003373ffffffffffffffffffffffffffffffffffffffff1673ffffffffffffffffffffffffffffffffffffffff16815260200190815260200160002080546106e090613701565b80601f016020809104026020016040519081016040528092919081815260200182805461070c90613701565b80156107595780601f1061072e57610100808354040283529160200191610759565b820191906000526020600020905b81548152906001019060200180831161073c57829003601f168201915b5050505050905060008151116107a4576040517f08c379a000000000000000000000000000000000000000000000000000000000815260040161079b906137a4565b60405180910390fd5b6007816040516107b49190613800565b908152602001604051809103902060020160149054906101000a900460ff16610812576040517f08c379a000000000000000000000000000000000000000000000000000000000815260040161080990613863565b60405180910390fd5b600560003373ffffffffffffffffffffffffffffffffffffffff1673ffffffffffffffffffffffffffffffffffffffff16815260200190815260200160002060009054906101000a900460ff168061089557506007816040516108759190613800565b908152602001604051809103902060020160149054906101000a900460ff165b6108d4576040517f08c379a00000000000000000000000000000000000000000000000000000000081526004016108cb906138cf565b60405180910390fd5b600660003373ffffffffffffffffffffffffffffffffffffffff1673ffffffffffffffffffffffffffffffffffffffff16815260200190815260200160002060009054906101000a900460ff1615610961576040517f08c379a00000000000000000000000000000000000000000000000000000000081526004016109589061393b565b60405180910390fd5b60008211801561097357506004548211155b6109b2576040517f08c379a00000000000000000000000000000000000000000000000000000000081526004016109a9906139a7565b60405180910390fd5b6001600660003373ffffffffffffffffffffffffffffffffffffffff1673ffffffffffffffffffffffffffffffffffffffff16815260200190815260200160002060006101000a81548160ff0219169083151502179055506001600360008481526020019081526020016000206002016000828254610a3191906139f6565b92505081905550813373ffffffffffffffffffffffffffffffffffffffff167f4d99b957a2bc29a30ebd96a7be8e68fe50a3c701db28a91436490b7d53870ca460405160405180910390a35050565b60066020528060005260406000206000915054906101000a900460ff1681565b600260019054906101000a900460ff1681565b600260009054906101000a900460ff1681565b60008054906101000a900473ffffffffffffffffffffffffffffffffffffffff1673ffffffffffffffffffffffffffffffffffffffff163373ffffffffffffffffffffffffffffffffffffffff1614610b54576040517f08c379a0000000000000000000000000000000000000000000000000000000008152600401610b4b90613a76565b60405180910390fd5b60028054906101000a900460ff1615610ba2576040517f08c379a0000000000000000000000000000000000000000000000000000000008152600401610b9990613ae2565b60405180910390fd5b8383905086869050148015610bbc57508181905084849050145b610bfb576040517f08c379a0000000000000000000000000000000000000000000000000000000008152600401610bf290613b4e565b60405180910390fd5b600086869050905060008111610c46576040517f08c379a0000000000000000000000000000000000000000000000000000000008152600401610c3d90613bba565b60405180910390fd5b60005b818110156112e9576000888883818110610c6657610c65613bda565b5b9050602002810190610c789190613c18565b905011610cba576040517f08c379a0000000000000000000000000000000000000000000000000000000008152600401610cb190613cc7565b60405180910390fd5b6000868683818110610ccf57610cce613bda565b5b9050602002810190610ce19190613c18565b905011610d23576040517f08c379a0000000000000000000000000000000000000000000000000000000008152600401610d1a90613d33565b60405180910390fd5b600073ffffffffffffffffffffffffffffffffffffffff16848483818110610d4e57610d4d613bda565b5b9050602002016020810190610d639190613016565b73ffffffffffffffffffffffffffffffffffffffff1603610db9576040517f08c379a0000000000000000000000000000000000000000000000000000000008152600401610db090613d9f565b60405180910390fd5b6007868683818110610dce57610dcd613bda565b5b9050602002810190610de09190613c18565b604051610dee929190613de4565b908152602001604051809103902060020160149054906101000a900460ff1615610e4d576040517f08c379a0000000000000000000000000000000000000000000000000000000008152600401610e4490613e49565b60405180910390fd5b600060086000868685818110610e6657610e65613bda565b5b9050602002016020810190610e7b9190613016565b73ffffffffffffffffffffffffffffffffffffffff1673ffffffffffffffffffffffffffffffffffffffff1681526020019081526020016000208054610ec090613701565b905014610f02576040517f08c379a0000000000000000000000000000000000000000000000000000000008152600401610ef990613eb5565b60405180910390fd5b6040518060800160405280898984818110610f2057610f1f613bda565b5b9050602002810190610f329190613c18565b8080601f016020809104026020016040519081016040528093929190818152602001838380828437600081840152601f19601f820116905080830192505050505050508152602001878784818110610f8d57610f8c613bda565b5b9050602002810190610f9f9190613c18565b8080601f016020809104026020016040519081016040528093929190818152602001838380828437600081840152601f19601f820116905080830192505050505050508152602001858584818110610ffa57610ff9613bda565b5b905060200201602081019061100f9190613016565b73ffffffffffffffffffffffffffffffffffffffff16815260200160011515815250600787878481811061104657611045613bda565b5b90506020028101906110589190613c18565b604051611066929190613de4565b908152602001604051809103902060008201518160000190816110899190614081565b50602082015181600101908161109f9190614081565b5060408201518160020160006101000a81548173ffffffffffffffffffffffffffffffffffffffff021916908373ffffffffffffffffffffffffffffffffffffffff16021790555060608201518160020160146101000a81548160ff02191690831515021790555090505085858281811061111d5761111c613bda565b5b905060200281019061112f9190613c18565b6008600087878681811061114657611145613bda565b5b905060200201602081019061115b9190613016565b73ffffffffffffffffffffffffffffffffffffffff1673ffffffffffffffffffffffffffffffffffffffff16815260200190815260200160002091826111a292919061415e565b5060098686838181106111b8576111b7613bda565b5b90506020028101906111ca9190613c18565b9091806001815401808255809150506001900390600052602060002001600090919290919290919290919250918261120392919061415e565b50600a60008154809291906112179061422e565b919050555085858281811061122f5761122e613bda565b5b90506020028101906112419190613c18565b60405161124f929190613de4565b60405180910390207f513ad40f4d46527f7cca42dd50314d07448ad92c1fd8a4f035beaa4cb2aca8e689898481811061128b5761128a613bda565b5b905060200281019061129d9190613c18565b8787868181106112b0576112af613bda565b5b90506020020160208101906112c59190613016565b6040516112d4939291906142a3565b60405180910390a28080600101915050610c49565b5050505050505050565b60008054906101000a900473ffffffffffffffffffffffffffffffffffffffff1673ffffffffffffffffffffffffffffffffffffffff163373ffffffffffffffffffffffffffffffffffffffff1614611381576040517f08c379a000000000000000000000000000000000000000000000000000000000815260040161137890613a76565b60405180910390fd5b60028054906101000a900460ff16156113cf576040517f08c379a00000000000000000000000000000000000000000000000000000000081526004016113c690613ae2565b60405180910390fd5b6000835111611413576040517f08c379a000000000000000000000000000000000000000000000000000000000815260040161140a90613cc7565b60405180910390fd5b6000825111611457576040517f08c379a000000000000000000000000000000000000000000000000000000000815260040161144e90613d33565b60405180910390fd5b600073ffffffffffffffffffffffffffffffffffffffff168173ffffffffffffffffffffffffffffffffffffffff16036114c6576040517f08c379a00000000000000000000000000000000000000000000000000000000081526004016114bd90613d9f565b60405180910390fd5b6007826040516114d69190613800565b908152602001604051809103902060020160149054906101000a900460ff1615611535576040517f08c379a000000000000000000000000000000000000000000000000000000000815260040161152c90613e49565b60405180910390fd5b6000600860008373ffffffffffffffffffffffffffffffffffffffff1673ffffffffffffffffffffffffffffffffffffffff168152602001908152602001600020805461158190613701565b9050146115c3576040517f08c379a00000000000000000000000000000000000000000000000000000000081526004016115ba90613eb5565b60405180910390fd5b60405180608001604052808481526020018381526020018273ffffffffffffffffffffffffffffffffffffffff1681526020016001151581525060078360405161160d9190613800565b908152602001604051809103902060008201518160000190816116309190614081565b5060208201518160010190816116469190614081565b5060408201518160020160006101000a81548173ffffffffffffffffffffffffffffffffffffffff021916908373ffffffffffffffffffffffffffffffffffffffff16021790555060608201518160020160146101000a81548160ff02191690831515021790555090505081600860008373ffffffffffffffffffffffffffffffffffffffff1673ffffffffffffffffffffffffffffffffffffffff16815260200190815260200160002090816116fd9190614081565b506009829080600181540180825580915050600190039060005260206000200160009091909190915090816117329190614081565b50600a60008154809291906117469061422e565b9190505550816040516117599190613800565b60405180910390207f513ad40f4d46527f7cca42dd50314d07448ad92c1fd8a4f035beaa4cb2aca8e684836040516117929291906142d5565b60405180910390a2505050565b60045481565b60036020528060005260406000206000915090508060000154908060010180546117ce90613701565b80601f01602080910402602001604051908101604052809291908181526020018280546117fa90613701565b80156118475780601f1061181c57610100808354040283529160200191611847565b820191906000526020600020905b81548152906001019060200180831161182a57829003601f168201915b5050505050908060020154905083565b600060606000808411801561186e57506004548411155b6118ad576040517f08c379a00000000000000000000000000000000000000000000000000000000081526004016118a4906139a7565b60405180910390fd5b600060036000868152602001908152602001600020905080600001548160010182600201548180546118de90613701565b80601f016020809104026020016040519081016040528092919081815260200182805461190a90613701565b80156119575780601f1061192c57610100808354040283529160200191611957565b820191906000526020600020905b81548152906001019060200180831161193a57829003601f168201915b50505050509150935093509350509193909250565b60008054906101000a900473ffffffffffffffffffffffffffffffffffffffff1673ffffffffffffffffffffffffffffffffffffffff163373ffffffffffffffffffffffffffffffffffffffff16146119fa576040517f08c379a00000000000000000000000000000000000000000000000000000000081526004016119f190613a76565b60405180910390fd5b600260009054906101000a900460ff1615611a4a576040517f08c379a0000000000000000000000000000000000000000000000000000000008152600401611a4190614351565b60405180910390fd5b600073ffffffffffffffffffffffffffffffffffffffff168173ffffffffffffffffffffffffffffffffffffffff1603611ab9576040517f08c379a0000000000000000000000000000000000000000000000000000000008152600401611ab0906143bd565b60405180910390fd5b600560008273ffffffffffffffffffffffffffffffffffffffff1673ffffffffffffffffffffffffffffffffffffffff16815260200190815260200160002060009054906101000a900460ff1615611b46576040517f08c379a0000000000000000000000000000000000000000000000000000000008152600401611b3d90614429565b60405180910390fd5b6001600560008373ffffffffffffffffffffffffffffffffffffffff1673ffffffffffffffffffffffffffffffffffffffff16815260200190815260200160002060006101000a81548160ff0219169083151502179055508073ffffffffffffffffffffffffffffffffffffffff167fb6be2187d059cc2a55fe29e0e503b566e1e0f8c8780096e185429350acffd3dd60405160405180910390a250565b60606000806000600785604051611bfb9190613800565b9081526020016040518091039020604051806080016040529081600082018054611c2490613701565b80601f0160208091040260200160405190810160405280929190818152602001828054611c5090613701565b8015611c9d5780601f10611c7257610100808354040283529160200191611c9d565b820191906000526020600020905b815481529060010190602001808311611c8057829003601f168201915b50505050508152602001600182018054611cb690613701565b80601f0160208091040260200160405190810160405280929190818152602001828054611ce290613701565b8015611d2f5780601f10611d0457610100808354040283529160200191611d2f565b820191906000526020600020905b815481529060010190602001808311611d1257829003601f168201915b505050505081526020016002820160009054906101000a900473ffffffffffffffffffffffffffffffffffffffff1673ffffffffffffffffffffffffffffffffffffffff1673ffffffffffffffffffffffffffffffffffffffff1681526020016002820160149054906101000a900460ff1615151515815250509050806000015181604001518260600151935093509350509193909250565b60008054906101000a900473ffffffffffffffffffffffffffffffffffffffff1673ffffffffffffffffffffffffffffffffffffffff163373ffffffffffffffffffffffffffffffffffffffff1614611e56576040517f08c379a0000000000000000000000000000000000000000000000000000000008152600401611e4d90613a76565b60405180910390fd5b600260009054906101000a900460ff1615611ea6576040517f08c379a0000000000000000000000000000000000000000000000000000000008152600401611e9d90614495565b60405180910390fd5b6000815111611eea576040517f08c379a0000000000000000000000000000000000000000000000000000000008152600401611ee190613cc7565b60405180910390fd5b60046000815480929190611efd9061422e565b9190505550604051806060016040528060045481526020018281526020016000815250600360006004548152602001908152602001600020600082015181600001556020820151816001019081611f549190614081565b50604082015181600201559050506004547fe83b2a43e7e82d975c8a0a6d2f045153c869e111136a34d1889ab7b598e396a382604051611f949190613531565b60405180910390a250565b60018054611fac90613701565b80601f0160208091040260200160405190810160405280929190818152602001828054611fd890613701565b80156120255780601f10611ffa57610100808354040283529160200191612025565b820191906000526020600020905b81548152906001019060200180831161200857829003601f168201915b505050505081565b60028054906101000a900460ff1681565b60008060028054906101000a900460ff16600a54915091509091565b60008054906101000a900473ffffffffffffffffffffffffffffffffffffffff1673ffffffffffffffffffffffffffffffffffffffff163373ffffffffffffffffffffffffffffffffffffffff16146120e8576040517f08c379a00000000000000000000000000000000000000000000000000000000081526004016120df90613a76565b60405180910390fd5b600260009054906101000a900460ff1680156121115750600260019054906101000a900460ff16155b612150576040517f08c379a0000000000000000000000000000000000000000000000000000000008152600401612147906136b2565b60405180910390fd5b6001600260016101000a81548160ff0219169083151502179055506000600260006101000a81548160ff0219169083151502179055507f66ec723071e4bb646f7b35d31bc2dee8510979bd8c180edd0690d4f5e802f1e460405160405180910390a1565b600981815481106121c457600080fd5b9060005260206000200160009150905080546121df90613701565b80601f016020809104026020016040519081016040528092919081815260200182805461220b90613701565b80156122585780601f1061222d57610100808354040283529160200191612258565b820191906000526020600020905b81548152906001019060200180831161223b57829003601f168201915b505050505081565b600a5481565b60008054906101000a900473ffffffffffffffffffffffffffffffffffffffff1673ffffffffffffffffffffffffffffffffffffffff163373ffffffffffffffffffffffffffffffffffffffff16146122f4576040517f08c379a00000000000000000000000000000000000000000000000000000000081526004016122eb90613a76565b60405180910390fd5b600260009054906101000a900460ff1615612344576040517f08c379a000000000000000000000000000000000000000000000000000000000815260040161233b90614501565b60405180910390fd5b600060045411612389576040517f08c379a00000000000000000000000000000000000000000000000000000000081526004016123809061456d565b60405180910390fd5b6001600260006101000a81548160ff0219169083151502179055506000600260016101000a81548160ff0219169083151502179055507fc475c26aa25ed8e85a7faa790e5f63b5d7ee1025f12821f4c9bfddd36ab4d11260405160405180910390a1565b60078180516020810182018051848252602083016020850120818352809550505050505060009150905080600001805461242690613701565b80601f016020809104026020016040519081016040528092919081815260200182805461245290613701565b801561249f5780601f106124745761010080835404028352916020019161249f565b820191906000526020600020905b81548152906001019060200180831161248257829003601f168201915b5050505050908060010180546124b490613701565b80601f01602080910402602001604051908101604052809291908181526020018280546124e090613701565b801561252d5780601f106125025761010080835404028352916020019161252d565b820191906000526020600020905b81548152906001019060200180831161251057829003601f168201915b5050505050908060020160009054906101000a900473ffffffffffffffffffffffffffffffffffffffff16908060020160149054906101000a900460ff16905084565b60606000806007846040516125859190613800565b90815260200160405180910390206040518060800160405290816000820180546125ae90613701565b80601f01602080910402602001604051908101604052809291908181526020018280546125da90613701565b80156126275780601f106125fc57610100808354040283529160200191612627565b820191906000526020600020905b81548152906001019060200180831161260a57829003601f168201915b5050505050815260200160018201805461264090613701565b80601f016020809104026020016040519081016040528092919081815260200182805461266c90613701565b80156126b95780601f1061268e576101008083540402835291602001916126b9565b820191906000526020600020905b81548152906001019060200180831161269c57829003601f168201915b505050505081526020016002820160009054906101000a900473ffffffffffffffffffffffffffffffffffffffff1673ffffffffffffffffffffffffffffffffffffffff1673ffffffffffffffffffffffffffffffffffffffff1681526020016002820160149054906101000a900460ff1615151515815250509050806000015181606001519250925050915091565b600080600860008473ffffffffffffffffffffffffffffffffffffffff1673ffffffffffffffffffffffffffffffffffffffff168152602001908152602001600020805461279690613701565b9050119050919050565b60008054906101000a900473ffffffffffffffffffffffffffffffffffffffff1681565b600060606000600260019054906101000a900460ff16612819576040517f08c379a0000000000000000000000000000000000000000000000000000000008152600401612810906145d9565b60405180910390fd5b6000806000600190505b600454811161287a57816003600083815260200190815260200160002060020154111561286757600360008281526020019081526020016000206002015491508092505b80806128729061422e565b915050612823565b50600082036128a4576000806040518060200160405280600081525090945094509450505061295f565b600060036000848152602001908152602001600020905080600001548160010182600201548180546128d590613701565b80601f016020809104026020016040519081016040528092919081815260200182805461290190613701565b801561294e5780601f106129235761010080835404028352916020019161294e565b820191906000526020600020905b81548152906001019060200180831161293157829003601f168201915b505050505091509550955095505050505b909192565b6008602052806000526040600020600091509050805461298390613701565b80601f01602080910402602001604051908101604052809291908181526020018280546129af90613701565b80156129fc5780601f106129d1576101008083540402835291602001916129fc565b820191906000526020600020905b8154815290600101906020018083116129df57829003601f168201915b505050505081565b60056020528060005260406000206000915054906101000a900460ff1681565b6060600860008373ffffffffffffffffffffffffffffffffffffffff1673ffffffffffffffffffffffffffffffffffffffff1681526020019081526020016000208054612a7090613701565b80601f0160208091040260200160405190810160405280929190818152602001828054612a9c90613701565b8015612ae95780601f10612abe57610100808354040283529160200191612ae9565b820191906000526020600020905b815481529060010190602001808311612acc57829003601f168201915b50505050509050919050565b60008054906101000a900473ffffffffffffffffffffffffffffffffffffffff1673ffffffffffffffffffffffffffffffffffffffff163373ffffffffffffffffffffffffffffffffffffffff1614612b83576040517f08c379a0000000000000000000000000000000000000000000000000000000008152600401612b7a90613a76565b60405180910390fd5b60028054906101000a900460ff1615612bd1576040517f08c379a0000000000000000000000000000000000000000000000000000000008152600401612bc890613ae2565b60405180910390fd5b6000600a5411612c16576040517f08c379a0000000000000000000000000000000000000000000000000000000008152600401612c0d90614645565b60405180910390fd5b60016002806101000a81548160ff0219169083151502179055507f11e29d15359d60fad1e0f7c7c5636d64f6482ffed06b8cb3245366443d5d922e600a54604051612c6191906133c3565b60405180910390a1565b6000600560008373ffffffffffffffffffffffffffffffffffffffff1673ffffffffffffffffffffffffffffffffffffffff16815260200190815260200160002060009054906101000a900460ff169050919050565b606060008060006001600260009054906101000a900460ff16600260019054906101000a900460ff16600454838054612cf990613701565b80601f0160208091040260200160405190810160405280929190818152602001828054612d2590613701565b8015612d725780601f10612d4757610100808354040283529160200191612d72565b820191906000526020600020905b815481529060010190602001808311612d5557829003601f168201915b50505050509350935093509350935090919293565b60008054906101000a900473ffffffffffffffffffffffffffffffffffffffff1673ffffffffffffffffffffffffffffffffffffffff163373ffffffffffffffffffffffffffffffffffffffff1614612e15576040517f08c379a0000000000000000000000000000000000000000000000000000000008152600401612e0c90613a76565b60405180910390fd5b600073ffffffffffffffffffffffffffffffffffffffff168173ffffffffffffffffffffffffffffffffffffffff1603612e84576040517f08c379a0000000000000000000000000000000000000000000000000000000008152600401612e7b906143bd565b60405180910390fd5b8073ffffffffffffffffffffffffffffffffffffffff1660008054906101000a900473ffffffffffffffffffffffffffffffffffffffff1673ffffffffffffffffffffffffffffffffffffffff167f8be0079c531659141344cd1fd0a4f28419497f9722a3daafe3b4186f6b6457e060405160405180910390a3806000806101000a81548173ffffffffffffffffffffffffffffffffffffffff021916908373ffffffffffffffffffffffffffffffffffffffff16021790555050565b6000604051905090565b600080fd5b600080fd5b6000819050919050565b612f6881612f55565b8114612f7357600080fd5b50565b600081359050612f8581612f5f565b92915050565b600060208284031215612fa157612fa0612f4b565b5b6000612faf84828501612f76565b91505092915050565b600073ffffffffffffffffffffffffffffffffffffffff82169050919050565b6000612fe382612fb8565b9050919050565b612ff381612fd8565b8114612ffe57600080fd5b50565b60008135905061301081612fea565b92915050565b60006020828403121561302c5761302b612f4b565b5b600061303a84828501613001565b91505092915050565b60008115159050919050565b61305881613043565b82525050565b6000602082019050613073600083018461304f565b92915050565b600080fd5b600080fd5b600080fd5b60008083601f84011261309e5761309d613079565b5b8235905067ffffffffffffffff8111156130bb576130ba61307e565b5b6020830191508360208202830111156130d7576130d6613083565b5b9250929050565b60008083601f8401126130f4576130f3613079565b5b8235905067ffffffffffffffff8111156131115761311061307e565b5b60208301915083602082028301111561312d5761312c613083565b5b9250929050565b6000806000806000806060878903121561315157613150612f4b565b5b600087013567ffffffffffffffff81111561316f5761316e612f50565b5b61317b89828a01613088565b9650965050602087013567ffffffffffffffff81111561319e5761319d612f50565b5b6131aa89828a01613088565b9450945050604087013567ffffffffffffffff8111156131cd576131cc612f50565b5b6131d989828a016130de565b92509250509295509295509295565b600080fd5b6000601f19601f8301169050919050565b7f4e487b7100000000000000000000000000000000000000000000000000000000600052604160045260246000fd5b613236826131ed565b810181811067ffffffffffffffff82111715613255576132546131fe565b5b80604052505050565b6000613268612f41565b9050613274828261322d565b919050565b600067ffffffffffffffff821115613294576132936131fe565b5b61329d826131ed565b9050602081019050919050565b82818337600083830152505050565b60006132cc6132c784613279565b61325e565b9050828152602081018484840111156132e8576132e76131e8565b5b6132f38482856132aa565b509392505050565b600082601f8301126133105761330f613079565b5b81356133208482602086016132b9565b91505092915050565b60008060006060848603121561334257613341612f4b565b5b600084013567ffffffffffffffff8111156133605761335f612f50565b5b61336c868287016132fb565b935050602084013567ffffffffffffffff81111561338d5761338c612f50565b5b613399868287016132fb565b92505060406133aa86828701613001565b9150509250925092565b6133bd81612f55565b82525050565b60006020820190506133d860008301846133b4565b92915050565b600081519050919050565b600082825260208201905092915050565b60005b838110156134185780820151818401526020810190506133fd565b60008484015250505050565b600061342f826133de565b61343981856133e9565b93506134498185602086016133fa565b613452816131ed565b840191505092915050565b600060608201905061347260008301866133b4565b81810360208301526134848185613424565b905061349360408301846133b4565b949350505050565b6000602082840312156134b1576134b0612f4b565b5b600082013567ffffffffffffffff8111156134cf576134ce612f50565b5b6134db848285016132fb565b91505092915050565b6134ed81612fd8565b82525050565b6000606082019050818103600083015261350d8186613424565b905061351c60208301856134e4565b613529604083018461304f565b949350505050565b6000602082019050818103600083015261354b8184613424565b905092915050565b6000604082019050613568600083018561304f565b61357560208301846133b4565b9392505050565b600060808201905081810360008301526135968187613424565b905081810360208301526135aa8186613424565b90506135b960408301856134e4565b6135c6606083018461304f565b95945050505050565b600060408201905081810360008301526135e98185613424565b90506135f8602083018461304f565b9392505050565b600060208201905061361460008301846134e4565b92915050565b600060808201905081810360008301526136348187613424565b9050613643602083018661304f565b613650604083018561304f565b61365d60608301846133b4565b95945050505050565b7f456c656374696f6e206973206e6f742061637469766500000000000000000000600082015250565b600061369c6016836133e9565b91506136a782613666565b602082019050919050565b600060208201905081810360008301526136cb8161368f565b9050919050565b7f4e487b7100000000000000000000000000000000000000000000000000000000600052602260045260246000fd5b6000600282049050600182168061371957607f821691505b60208210810361372c5761372b6136d2565b5b50919050565b7f57616c6c6574206e6f74207265676973746572656420696e20766f746572206460008201527f6174616261736500000000000000000000000000000000000000000000000000602082015250565b600061378e6027836133e9565b915061379982613732565b604082019050919050565b600060208201905081810360008301526137bd81613781565b9050919050565b600081905092915050565b60006137da826133de565b6137e481856137c4565b93506137f48185602086016133fa565b80840191505092915050565b600061380c82846137cf565b915081905092915050565b7f496e76616c696420766f74657200000000000000000000000000000000000000600082015250565b600061384d600d836133e9565b915061385882613817565b602082019050919050565b6000602082019050818103600083015261387c81613840565b9050919050565b7f4e6f74207265676973746572656420746f20766f746500000000000000000000600082015250565b60006138b96016836133e9565b91506138c482613883565b602082019050919050565b600060208201905081810360008301526138e8816138ac565b9050919050565b7f416c726561647920766f74656400000000000000000000000000000000000000600082015250565b6000613925600d836133e9565b9150613930826138ef565b602082019050919050565b6000602082019050818103600083015261395481613918565b9050919050565b7f496e76616c69642063616e646964617465000000000000000000000000000000600082015250565b60006139916011836133e9565b915061399c8261395b565b602082019050919050565b600060208201905081810360008301526139c081613984565b9050919050565b7f4e487b7100000000000000000000000000000000000000000000000000000000600052601160045260246000fd5b6000613a0182612f55565b9150613a0c83612f55565b9250828201905080821115613a2457613a236139c7565b5b92915050565b7f4f6e6c79206f776e65722063616e2063616c6c20746869730000000000000000600082015250565b6000613a606018836133e9565b9150613a6b82613a2a565b602082019050919050565b60006020820190508181036000830152613a8f81613a53565b9050919050565b7f566f746572206c69737420616c72656164792066696e616c697a656400000000600082015250565b6000613acc601c836133e9565b9150613ad782613a96565b602082019050919050565b60006020820190508181036000830152613afb81613abf565b9050919050565b7f4172726179206c656e677468206d69736d617463680000000000000000000000600082015250565b6000613b386015836133e9565b9150613b4382613b02565b602082019050919050565b60006020820190508181036000830152613b6781613b2b565b9050919050565b7f456d707479206261746368000000000000000000000000000000000000000000600082015250565b6000613ba4600b836133e9565b9150613baf82613b6e565b602082019050919050565b60006020820190508181036000830152613bd381613b97565b9050919050565b7f4e487b7100000000000000000000000000000000000000000000000000000000600052603260045260246000fd5b600080fd5b600080fd5b600080fd5b60008083356001602003843603038112613c3557613c34613c09565b5b80840192508235915067ffffffffffffffff821115613c5757613c56613c0e565b5b602083019250600182023603831315613c7357613c72613c13565b5b509250929050565b7f4e616d6520726571756972656400000000000000000000000000000000000000600082015250565b6000613cb1600d836133e9565b9150613cbc82613c7b565b602082019050919050565b60006020820190508181036000830152613ce081613ca4565b9050919050565b7f556e697175652049442072657175697265640000000000000000000000000000600082015250565b6000613d1d6012836133e9565b9150613d2882613ce7565b602082019050919050565b60006020820190508181036000830152613d4c81613d10565b9050919050565b7f496e76616c69642077616c6c6574206164647265737300000000000000000000600082015250565b6000613d896016836133e9565b9150613d9482613d53565b602082019050919050565b60006020820190508181036000830152613db881613d7c565b9050919050565b6000613dcb83856137c4565b9350613dd88385846132aa565b82840190509392505050565b6000613df1828486613dbf565b91508190509392505050565b7f556e6971756520494420616c7265616479206578697374730000000000000000600082015250565b6000613e336018836133e9565b9150613e3e82613dfd565b602082019050919050565b60006020820190508181036000830152613e6281613e26565b9050919050565b7f57616c6c657420616c7265616479207265676973746572656400000000000000600082015250565b6000613e9f6019836133e9565b9150613eaa82613e69565b602082019050919050565b60006020820190508181036000830152613ece81613e92565b9050919050565b60008190508160005260206000209050919050565b60006020601f8301049050919050565b600082821b905092915050565b600060088302613f377fffffffffffffffffffffffffffffffffffffffffffffffffffffffffffffffff82613efa565b613f418683613efa565b95508019841693508086168417925050509392505050565b6000819050919050565b6000613f7e613f79613f7484612f55565b613f59565b612f55565b9050919050565b6000819050919050565b613f9883613f63565b613fac613fa482613f85565b848454613f07565b825550505050565b600090565b613fc1613fb4565b613fcc818484613f8f565b505050565b5b81811015613ff057613fe5600082613fb9565b600181019050613fd2565b5050565b601f8211156140355761400681613ed5565b61400f84613eea565b8101602085101561401e578190505b61403261402a85613eea565b830182613fd1565b50505b505050565b600082821c905092915050565b60006140586000198460080261403a565b1980831691505092915050565b60006140718383614047565b9150826002028217905092915050565b61408a826133de565b67ffffffffffffffff8111156140a3576140a26131fe565b5b6140ad8254613701565b6140b8828285613ff4565b600060209050601f8311600181146140eb57600084156140d9578287015190505b6140e38582614065565b86555061414b565b601f1984166140f986613ed5565b60005b82811015614121578489015182556001820191506020850194506020810190506140fc565b8683101561413e578489015161413a601f891682614047565b8355505b6001600288020188555050505b505050505050565b600082905092915050565b6141688383614153565b67ffffffffffffffff811115614181576141806131fe565b5b61418b8254613701565b614196828285613ff4565b6000601f8311600181146141c557600084156141b3578287013590505b6141bd8582614065565b865550614225565b601f1984166141d386613ed5565b60005b828110156141fb578489013582556001820191506020850194506020810190506141d6565b868310156142185784890135614214601f891682614047565b8355505b6001600288020188555050505b50505050505050565b600061423982612f55565b91507fffffffffffffffffffffffffffffffffffffffffffffffffffffffffffffffff820361426b5761426a6139c7565b5b600182019050919050565b600061428283856133e9565b935061428f8385846132aa565b614298836131ed565b840190509392505050565b600060408201905081810360008301526142be818587614276565b90506142cd60208301846134e4565b949350505050565b600060408201905081810360008301526142ef8185613424565b90506142fe60208301846134e4565b9392505050565b7f43616e6e6f742072656769737465722061667465722073746172740000000000600082015250565b600061433b601b836133e9565b915061434682614305565b602082019050919050565b6000602082019050818103600083015261436a8161432e565b9050919050565b7f496e76616c696420616464726573730000000000000000000000000000000000600082015250565b60006143a7600f836133e9565b91506143b282614371565b602082019050919050565b600060208201905081810360008301526143d68161439a565b9050919050565b7f416c726561647920726567697374657265640000000000000000000000000000600082015250565b60006144136012836133e9565b915061441e826143dd565b602082019050919050565b6000602082019050818103600083015261444281614406565b9050919050565b7f456c656374696f6e20616c726561647920737461727465640000000000000000600082015250565b600061447f6018836133e9565b915061448a82614449565b602082019050919050565b600060208201905081810360008301526144ae81614472565b9050919050565b7f416c726561647920737461727465640000000000000000000000000000000000600082015250565b60006144eb600f836133e9565b91506144f6826144b5565b602082019050919050565b6000602082019050818103600083015261451a816144de565b9050919050565b7f4e6f2063616e6469646174657300000000000000000000000000000000000000600082015250565b6000614557600d836133e9565b915061456282614521565b602082019050919050565b600060208201905081810360008301526145868161454a565b9050919050565b7f456c656374696f6e206e6f7420656e6465640000000000000000000000000000600082015250565b60006145c36012836133e9565b91506145ce8261458d565b602082019050919050565b600060208201905081810360008301526145f2816145b6565b9050919050565b7f4e6f20766f746572732061646465640000000000000000000000000000000000600082015250565b600061462f600f836133e9565b915061463a826145f9565b602082019050919050565b6000602082019050818103600083015261465e81614622565b905091905056fea26469706673582212202771a371b7f6fea366fbd9975aca9f10c7416a8d29cfdfa82711ff3e25e975a064736f6c634300081c0033a264697066735822122088e9072335b6ad1a1f4c50de78d6ddf032462b54249d35081ef4103faa1b4c9164736f6c634300081c0033",
  "linkReferences": {},
  "deployedLinkReferences": {}
}