{
  "_format": "hh-sol-artifact-1",
  "contractName": "Election",
  "sourceName": "contracts/Election.sol",
  "abi": [
    {
      "inputs": [],
      "stateMutability": "nonpayable",
      "type": "constructor"
    },
    {
      "anonymous": false,
      "inputs": [
        {
          "indexed": true,
          "internalType": "uint256",
          "name": "id",
          "type": "uint256"
        },
        {
          "indexed": false,
          "internalType": "string",
          "name": "name",
          "type": "string"
        }
      ],
      "name": "CandidateAdded",
      "type": "event"
    },
    {
      "anonymous": false,
      "inputs": [
        {
          "indexed": true,
          "internalType": "uint256",
          "name": "round",
          "type": "uint256"
        }
      ],
      "name": "ElectionEnded",
      "type": "event"
    },
    {
      "anonymous": false,
      "inputs": [
        {
          "indexed": true,
          "internalType": "uint256",
          "name": "round",
          "type": "uint256"
        }
      ],
      "name": "ElectionStarted",
      "type": "event"
    },
    {
      "anonymous": false,
      "inputs": [
        {
          "indexed": true,
          "internalType": "uint256",
          "name": "roundCleared",
          "type": "uint256"
        }
      ],
      "name": "ResetAll",
      "type": "event"
    },
    {
      "anonymous": false,
      "inputs": [
        {
          "indexed": true,
          "internalType": "address",
          "name": "voter",
          "type": "address"
        },
        {
          "indexed": true,
          "internalType": "uint256",
          "name": "candidateId",
          "type": "uint256"
        },
        {
          "indexed": true,
          "internalType": "uint256",
          "name": "round",
          "type": "uint256"
        }
      ],
      "name": "Voted",
      "type": "event"
    },
    {
      "anonymous": false,
      "inputs": [
        {
          "indexed": true,
          "internalType": "address",
          "name": "voter",
          "type": "address"
        }
      ],
      "name": "VoterRegistered",
      "type": "event"
    },
    {
      "inputs": [
        {
          "internalType": "string",
          "name": "_name",
          "type": "string"
        }
      ],
      "name": "addCandidate",
      "outputs": [],
      "stateMutability": "nonpayable",
      "type": "function"
    },
    {
      "inputs": [
        {
          "internalType": "uint256",
          "name": "",
          "type": "uint256"
        }
      ],
      "name": "candidates",
      "outputs": [
        {
          "internalType": "uint256",
          "name": "id",
          "type": "uint256"
        },
        {
          "internalType": "string",
          "name": "name",
          "type": "string"
        }
      ],
      "stateMutability": "view",
      "type": "function"
    },
    {
      "inputs": [],
      "name": "candidatesCount",
      "outputs": [
        {
          "internalType": "uint256",
          "name": "",
          "type": "uint256"
        }
      ],
      "stateMutability": "view",
      "type": "function"
    },
    {
      "inputs": [],
      "name": "electionEnded",
      "outputs": [
        {
          "internalType": "bool",
          "name": "",
          "type": "bool"
        }
      ],
      "stateMutability": "view",
      "type": "function"
    },
    {
      "inputs": [],
      "name": "electionStarted",
      "outputs": [
        {
          "internalType": "bool",
          "name": "",
          "type": "bool"
        }
      ],
      "stateMutability": "view",
      "type": "function"
    },
    {
      "inputs": [],
      "name": "endElection",
      "outputs": [],
      "stateMutability": "nonpayable",
      "type": "function"
    },
    {
      "inputs": [
        {
          "internalType": "uint256",
          "name": "_candidateId",
          "type": "uint256"
        }
      ],
      "name": "getVotes",
      "outputs": [
        {
          "internalType": "uint256",
          "name": "",
          "type": "uint256"
        }
      ],
      "stateMutability": "view",
      "type": "function"
    },
    {
      "inputs": [],
      "name": "getWinner",
      "outputs": [
        {
          "internalType": "uint256",
          "name": "id",
          "type": "uint256"
        },
        {
          "internalType": "string",
          "name": "name",
          "type": "string"
        },
        {
          "internalType": "uint256",
          "name": "votes",
          "type": "uint256"
        }
      ],
      "stateMutability": "view",
      "type": "function"
    },
    {
      "inputs": [
        {
          "internalType": "address",
          "name": "",
          "type": "address"
        }
      ],
      "name": "lastVotedRound",
      "outputs": [
        {
          "internalType": "uint256",
          "name": "",
          "type": "uint256"
        }
      ],
      "stateMutability": "view",
      "type": "function"
    },
    {
      "inputs": [],
      "name": "owner",
      "outputs": [
        {
          "internalType": "address",
          "name": "",
          "type": "address"
        }
      ],
      "stateMutability": "view",
      "type": "function"
    },
    {
      "inputs": [
        {
          "internalType": "address",
          "name": "_voter",
          "type": "address"
        }
      ],
      "name": "registerVoter",
      "outputs": [],
      "stateMutability": "nonpayable",
      "type": "function"
    },
    {
      "inputs": [
        {
          "internalType": "address",
          "name": "",
          "type": "address"
        }
      ],
      "name": "registeredVoters",
      "outputs": [
        {
          "internalType": "bool",
          "name": "",
          "type": "bool"
        }
      ],
      "stateMutability": "view",
      "type": "function"
    },
    {
      "inputs": [],
      "name": "resetAll",
      "outputs": [],
      "stateMutability": "nonpayable",
      "type": "function"
    },
    {
      "inputs": [],
      "name": "round",
      "outputs": [
        {
          "internalType": "uint256",
          "name": "",
          "type": "uint256"
        }
      ],
      "stateMutability": "view",
      "type": "function"
    },
    {
      "inputs": [],
      "name": "startElection",
      "outputs": [],
      "stateMutability": "nonpayable",
      "type": "function"
    },
    {
      "inputs": [
        {
          "internalType": "uint256",
          "name": "_candidateId",
          "type": "uint256"
        }
      ],
      "name": "vote",
      "outputs": [],
      "stateMutability": "nonpayable",
      "type": "function"
    }
  ],
  "bytecode": "0x6080604052348015600f57600080fd5b50336000806101000a81548173ffffffffffffffffffffffffffffffffffffffff021916908373ffffffffffffffffffffffffffffffffffffffff160217905550611c248061005f6000396000f3fe608060405234801561001057600080fd5b50600436106101005760003560e01c80638da5cb5b11610097578063d5346da111610066578063d5346da114610266578063d649318814610284578063e103aef5146102b4578063ff981099146102be57610100565b80638da5cb5b146101da5780638e7ea5b2146101f8578063a9ff6df114610218578063c94ca9e31461024857610100565b806338db6dd3116100d357806338db6dd31461018e578063462e91ec146101aa57806359f78468146101c657806362d73eb8146101d057610100565b80630121b93f14610105578063146ca531146101215780632d35a8a21461013f5780633477ee2e1461015d575b600080fd5b61011f600480360381019061011a91906110b9565b6102ee565b005b610129610584565b60405161013691906110f5565b60405180910390f35b61014761058a565b60405161015491906110f5565b60405180910390f35b610177600480360381019061017291906110b9565b610590565b6040516101859291906111a0565b60405180910390f35b6101a860048036038101906101a3919061122e565b61063c565b005b6101c460048036038101906101bf9190611390565b6107d7565b005b6101ce61094d565b005b6101d8610aaa565b005b6101e2610c09565b6040516101ef91906113e8565b60405180910390f35b610200610c2d565b60405161020f93929190611403565b60405180910390f35b610232600480360381019061022d919061122e565b610de5565b60405161023f919061145c565b60405180910390f35b610250610e05565b60405161025d919061145c565b60405180910390f35b61026e610e18565b60405161027b919061145c565b60405180910390f35b61029e6004803603810190610299919061122e565b610e2b565b6040516102ab91906110f5565b60405180910390f35b6102bc610e43565b005b6102d860048036038101906102d391906110b9565b610f92565b6040516102e591906110f5565b60405180910390f35b600760009054906101000a900460ff1680156103175750600760019054906101000a900460ff16155b610356576040517f08c379a000000000000000000000000000000000000000000000000000000000815260040161034d906114c3565b60405180910390fd5b600360003373ffffffffffffffffffffffffffffffffffffffff1673ffffffffffffffffffffffffffffffffffffffff16815260200190815260200160002060009054906101000a900460ff166103e2576040517f08c379a00000000000000000000000000000000000000000000000000000000081526004016103d99061152f565b60405180910390fd5b6000811180156103f457506002548111155b610433576040517f08c379a000000000000000000000000000000000000000000000000000000000815260040161042a9061159b565b60405180910390fd5b600654600460003373ffffffffffffffffffffffffffffffffffffffff1673ffffffffffffffffffffffffffffffffffffffff16815260200190815260200160002054106104b6576040517f08c379a00000000000000000000000000000000000000000000000000000000081526004016104ad90611607565b60405180910390fd5b600654600460003373ffffffffffffffffffffffffffffffffffffffff1673ffffffffffffffffffffffffffffffffffffffff168152602001908152602001600020819055506001600560006006548152602001908152602001600020600083815260200190815260200160002060008282546105339190611656565b92505081905550600654813373ffffffffffffffffffffffffffffffffffffffff167fea66f58e474bc09f580000e81f31b334d171db387d0c6098ba47bd897741679b60405160405180910390a450565b60065481565b60025481565b60016020528060005260406000206000915090508060000154908060010180546105b9906116b9565b80601f01602080910402602001604051908101604052809291908181526020018280546105e5906116b9565b80156106325780601f1061060757610100808354040283529160200191610632565b820191906000526020600020905b81548152906001019060200180831161061557829003601f168201915b5050505050905082565b60008054906101000a900473ffffffffffffffffffffffffffffffffffffffff1673ffffffffffffffffffffffffffffffffffffffff163373ffffffffffffffffffffffffffffffffffffffff16146106ca576040517f08c379a00000000000000000000000000000000000000000000000000000000081526004016106c190611736565b60405180910390fd5b600073ffffffffffffffffffffffffffffffffffffffff168173ffffffffffffffffffffffffffffffffffffffff1603610739576040517f08c379a0000000000000000000000000000000000000000000000000000000008152600401610730906117a2565b60405180910390fd5b6001600360008373ffffffffffffffffffffffffffffffffffffffff1673ffffffffffffffffffffffffffffffffffffffff16815260200190815260200160002060006101000a81548160ff0219169083151502179055508073ffffffffffffffffffffffffffffffffffffffff167fb6be2187d059cc2a55fe29e0e503b566e1e0f8c8780096e185429350acffd3dd60405160405180910390a250565b60008054906101000a900473ffffffffffffffffffffffffffffffffffffffff1673ffffffffffffffffffffffffffffffffffffffff163373ffffffffffffffffffffffffffffffffffffffff1614610865576040517f08c379a000000000000000000000000000000000000000000000000000000000815260040161085c90611736565b60405180910390fd5b60008151116108a9576040517f08c379a00000000000000000000000000000000000000000000000000000000081526004016108a09061180e565b60405180910390fd5b600260008154809291906108bc9061182e565b9190505550604051806040016040528060025481526020018281525060016000600254815260200190815260200160002060008201518160000155602082015181600101908161090c9190611a22565b509050506002547fe83b2a43e7e82d975c8a0a6d2f045153c869e111136a34d1889ab7b598e396a3826040516109429190611af4565b60405180910390a250565b60008054906101000a900473ffffffffffffffffffffffffffffffffffffffff1673ffffffffffffffffffffffffffffffffffffffff163373ffffffffffffffffffffffffffffffffffffffff16146109db576040517f08c379a00000000000000000000000000000000000000000000000000000000081526004016109d290611736565b60405180910390fd5b600760009054906101000a900460ff168015610a045750600760019054906101000a900460ff16155b610a43576040517f08c379a0000000000000000000000000000000000000000000000000000000008152600401610a3a906114c3565b60405180910390fd5b6001600760016101000a81548160ff0219169083151502179055506000600760006101000a81548160ff0219169083151502179055506006547f562cd572b2ba3b666cd989fc4ca98419ec81e75f04528df9d9d76fdb7807ee7160405160405180910390a2565b60008054906101000a900473ffffffffffffffffffffffffffffffffffffffff1673ffffffffffffffffffffffffffffffffffffffff163373ffffffffffffffffffffffffffffffffffffffff1614610b38576040517f08c379a0000000000000000000000000000000000000000000000000000000008152600401610b2f90611736565b60405180910390fd5b600760009054906101000a900460ff1615610b88576040517f08c379a0000000000000000000000000000000000000000000000000000000008152600401610b7f90611b62565b60405180910390fd5b600160066000828254610b9b9190611656565b925050819055506001600760006101000a81548160ff0219169083151502179055506000600760016101000a81548160ff0219169083151502179055506006547f159eee87222a0489c529f2153c26ad65d718f2cc33ebaa8d399d1dd5b39facaa60405160405180910390a2565b60008054906101000a900473ffffffffffffffffffffffffffffffffffffffff1681565b600060606000600760019054906101000a900460ff16610c82576040517f08c379a0000000000000000000000000000000000000000000000000000000008152600401610c7990611bce565b60405180910390fd5b6000806000600190505b6002548111610ce3576000600560006006548152602001908152602001600020600083815260200190815260200160002054905082811115610ccf578092508193505b508080610cdb9061182e565b915050610c8c565b5060008203610d0d5760008060405180602001604052806000815250909450945094505050610de0565b60006001600084815260200190815260200160002060405180604001604052908160008201548152602001600182018054610d47906116b9565b80601f0160208091040260200160405190810160405280929190818152602001828054610d73906116b9565b8015610dc05780601f10610d9557610100808354040283529160200191610dc0565b820191906000526020600020905b815481529060010190602001808311610da357829003601f168201915b505050505081525050905080600001518160200151839550955095505050505b909192565b60036020528060005260406000206000915054906101000a900460ff1681565b600760019054906101000a900460ff1681565b600760009054906101000a900460ff1681565b60046020528060005260406000206000915090505481565b60008054906101000a900473ffffffffffffffffffffffffffffffffffffffff1673ffffffffffffffffffffffffffffffffffffffff163373ffffffffffffffffffffffffffffffffffffffff1614610ed1576040517f08c379a0000000000000000000000000000000000000000000000000000000008152600401610ec890611736565b60405180910390fd5b6000600190505b6002548111610f225760016000828152602001908152602001600020600080820160009055600182016000610f0d9190611012565b50508080610f1a9061182e565b915050610ed8565b5060006002819055506000600760006101000a81548160ff0219169083151502179055506000600760016101000a81548160ff0219169083151502179055506006547f6f36d8e5c8826a5795791ddd2019ddf84081d0c29b1ee9546b04eb6374cba6bc60405160405180910390a2565b60008082118015610fa557506002548211155b610fe4576040517f08c379a0000000000000000000000000000000000000000000000000000000008152600401610fdb9061159b565b60405180910390fd5b6005600060065481526020019081526020016000206000838152602001908152602001600020549050919050565b50805461101e906116b9565b6000825580601f10611030575061104f565b601f01602090049060005260206000209081019061104e9190611052565b5b50565b5b8082111561106b576000816000905550600101611053565b5090565b6000604051905090565b600080fd5b600080fd5b6000819050919050565b61109681611083565b81146110a157600080fd5b50565b6000813590506110b38161108d565b92915050565b6000602082840312156110cf576110ce611079565b5b60006110dd848285016110a4565b91505092915050565b6110ef81611083565b82525050565b600060208201905061110a60008301846110e6565b92915050565b600081519050919050565b600082825260208201905092915050565b60005b8381101561114a57808201518184015260208101905061112f565b60008484015250505050565b6000601f19601f8301169050919050565b600061117282611110565b61117c818561111b565b935061118c81856020860161112c565b61119581611156565b840191505092915050565b60006040820190506111b560008301856110e6565b81810360208301526111c78184611167565b90509392505050565b600073ffffffffffffffffffffffffffffffffffffffff82169050919050565b60006111fb826111d0565b9050919050565b61120b816111f0565b811461121657600080fd5b50565b60008135905061122881611202565b92915050565b60006020828403121561124457611243611079565b5b600061125284828501611219565b91505092915050565b600080fd5b600080fd5b7f4e487b7100000000000000000000000000000000000000000000000000000000600052604160045260246000fd5b61129d82611156565b810181811067ffffffffffffffff821117156112bc576112bb611265565b5b80604052505050565b60006112cf61106f565b90506112db8282611294565b919050565b600067ffffffffffffffff8211156112fb576112fa611265565b5b61130482611156565b9050602081019050919050565b82818337600083830152505050565b600061133361132e846112e0565b6112c5565b90508281526020810184848401111561134f5761134e611260565b5b61135a848285611311565b509392505050565b600082601f8301126113775761137661125b565b5b8135611387848260208601611320565b91505092915050565b6000602082840312156113a6576113a5611079565b5b600082013567ffffffffffffffff8111156113c4576113c361107e565b5b6113d084828501611362565b91505092915050565b6113e2816111f0565b82525050565b60006020820190506113fd60008301846113d9565b92915050565b600060608201905061141860008301866110e6565b818103602083015261142a8185611167565b905061143960408301846110e6565b949350505050565b60008115159050919050565b61145681611441565b82525050565b6000602082019050611471600083018461144d565b92915050565b7f456c656374696f6e206973206e6f742061637469766500000000000000000000600082015250565b60006114ad60168361111b565b91506114b882611477565b602082019050919050565b600060208201905081810360008301526114dc816114a0565b9050919050565b7f4e6f74207265676973746572656420746f20766f746500000000000000000000600082015250565b600061151960168361111b565b9150611524826114e3565b602082019050919050565b600060208201905081810360008301526115488161150c565b9050919050565b7f496e76616c69642063616e646964617465000000000000000000000000000000600082015250565b600061158560118361111b565b91506115908261154f565b602082019050919050565b600060208201905081810360008301526115b481611578565b9050919050565b7f416c726561647920766f746564207468697320726f756e640000000000000000600082015250565b60006115f160188361111b565b91506115fc826115bb565b602082019050919050565b60006020820190508181036000830152611620816115e4565b9050919050565b7f4e487b7100000000000000000000000000000000000000000000000000000000600052601160045260246000fd5b600061166182611083565b915061166c83611083565b925082820190508082111561168457611683611627565b5b92915050565b7f4e487b7100000000000000000000000000000000000000000000000000000000600052602260045260246000fd5b600060028204905060018216806116d157607f821691505b6020821081036116e4576116e361168a565b5b50919050565b7f4f6e6c79206f776e65722063616e2063616c6c20746869730000000000000000600082015250565b600061172060188361111b565b915061172b826116ea565b602082019050919050565b6000602082019050818103600083015261174f81611713565b9050919050565b7f496e76616c696420616464726573730000000000000000000000000000000000600082015250565b600061178c600f8361111b565b915061179782611756565b602082019050919050565b600060208201905081810360008301526117bb8161177f565b9050919050565b7f4e616d6520726571756972656400000000000000000000000000000000000000600082015250565b60006117f8600d8361111b565b9150611803826117c2565b602082019050919050565b60006020820190508181036000830152611827816117eb565b9050919050565b600061183982611083565b91507fffffffffffffffffffffffffffffffffffffffffffffffffffffffffffffffff820361186b5761186a611627565b5b600182019050919050565b60008190508160005260206000209050919050565b60006020601f8301049050919050565b600082821b905092915050565b6000600883026118d87fffffffffffffffffffffffffffffffffffffffffffffffffffffffffffffffff8261189b565b6118e2868361189b565b95508019841693508086168417925050509392505050565b6000819050919050565b600061191f61191a61191584611083565b6118fa565b611083565b9050919050565b6000819050919050565b61193983611904565b61194d61194582611926565b8484546118a8565b825550505050565b600090565b611962611955565b61196d818484611930565b505050565b5b818110156119915761198660008261195a565b600181019050611973565b5050565b601f8211156119d6576119a781611876565b6119b08461188b565b810160208510156119bf578190505b6119d36119cb8561188b565b830182611972565b50505b505050565b600082821c905092915050565b60006119f9600019846008026119db565b1980831691505092915050565b6000611a1283836119e8565b9150826002028217905092915050565b611a2b82611110565b67ffffffffffffffff811115611a4457611a43611265565b5b611a4e82546116b9565b611a59828285611995565b600060209050601f831160018114611a8c5760008415611a7a578287015190505b611a848582611a06565b865550611aec565b601f198416611a9a86611876565b60005b82811015611ac257848901518255600182019150602085019450602081019050611a9d565b86831015611adf5784890151611adb601f8916826119e8565b8355505b6001600288020188555050505b505050505050565b60006020820190508181036000830152611b0e8184611167565b905092915050565b7f456c656374696f6e20616c726561647920737461727465640000000000000000600082015250565b6000611b4c60188361111b565b9150611b5782611b16565b602082019050919050565b60006020820190508181036000830152611b7b81611b3f565b9050919050565b7f456c656374696f6e206e6f7420656e6465642079657400000000000000000000600082015250565b6000611bb860168361111b565b9150611bc382611b82565b602082019050919050565b60006020820190508181036000830152611be781611bab565b905091905056fea264697066735822122059a875bfbea1d343b0fcffd15b167c74e7bcf4c4f295215610c9fff966ad686b64736f6c634300081c0033",
  "linkReferences": {},
  "deployedLinkReferences": {}
}